:020000040800F2
:10000000E00A00203901000841010008430100080E
:100010009D33000847010008490100080000000066
:100020000000000000000000000000004B0100087C
:100030004D010008000000004F010008453600088F
:10004000530100085301000853010008F13400086F
:100050005301000853010008BD01000853010008C6
:100060005301000853010008530100085301000820
:100070005301000853010008530100085301000810
:100080005301000853010008AD01000853010008A6
:1000900053010008530100085301000853010008F0
:1000A000000000005301000853010008530100083C
:1000B00053010008530100085301000853010008D0
:1000C00053010008530100085301000811350008CE
:1000D00021350008B9380008C93800085301000864
:1000E00039020008530100085301000853010008B9
:1000F00053010008013500085301000853010008AE
:10010000530100085301000853010008530100087F
:1001100053010008530100085301000800000000CB
:1001200053010008DFF80CD000F02EF8004800471B
:10013000913A0008E00A0020064880470648004738
:10014000FEE7FEE7FEE7FEE7FEE7FEE7FEE7FEE787
:10015000FEE7FEE7F93600082501000830B50B463A
:10016000014600202022012409E021FA02F59D42E7
:1001700005D303FA02F5491B04FA02F52844151EBB
:10018000A2F10102F1DC30BD064C074D06E0E0684B
:1001900040F0010394E8070098471034AC42F6D3CE
:1001A000FFF7C4FF603B0008803B000810B5024821
:1001B00000F04BF810BD00002000002010B5012217
:1001C0008021074800F010FA02F09CFD00228021F7
:1001D000034800F009FA012000F002F910BD000008
:1001E0000004024000B587B000BF1048006840F02E
:1001F00001000E4908600846006800F00100019007
:1002000000BF00BF0A480390002004900120029024
:1002100002A9084800F0F2F800220221062000F0AE
:1002200050FA062000F040FA07B000BD1C3802402A
:10023000000011100000024010B54FF4005000F013
:10024000CFF810BD70477047704710B5044620685E
:10025000406800F02000202837D12068006800F0B6
:100260000200022831D1E06C00F0100018B9E06CF7
:1002700040F40070E0642068806800F04050E8B905
:10028000606AD8B92068006B00F0F87020B120686F
:10029000806800F4806088B92068406820F0200001
:1002A00021684860E06C20F48070E064E06C00F449
:1002B000805018B9E06C40F00100E0642046FFF780
:1002C000C2FF6FF01200216808602068406800F0EB
:1002D0008000802841D12068006800F004000428D4
:1002E0003BD1E06C00F0100018B9E06C40F4005015
:1002F000E0642068806800F4401038BB2068406CDF
:1003000000F4401020B12068806800F48060E8B9F3
:100310002068406800F48060C0B92068806800F000
:10032000405098B9606A88B92068406820F0800021
:1003300021684860E06C20F48050E064E06C00F4D8
:10034000807018B9E06C40F00100E0642046FFF7CF
:1003500079FF6FF00C00216808602068406800F0A9
:10036000400040280FD12068006800F0010050B123
:10037000E06C40F48030E064204600F021F86FF03B
:100380000100216808602068406800F08060B0F1DA
:10039000806F14D12068006800F0200020280ED162
:1003A000206D40F0020020656FF020002168086099
:1003B0002046FFF749FF6FF020002168086010BD5C
:1003C000704731B5002400F015F9044600BF00F075
:1003D00011F9001B00998842F9D338BD704700001D
:1003E00010B5044604480068204020B1024804606B
:1003F0002046FFF7F3FF10BD1404014078B5034613
:10040000002200240020D4E0012696400D6805EA71
:100410000604002C71D04D68022D02D04D68122DBB
:1004200013D1D60803F1200555F826005507EE0E26
:100430000F25B540A8435607F60E0D69B540284371
:10044000D60803F1200545F8260018685600032554
:10045000B540A8430D7905F003055600B540284383
:1004600018604D68012D08D04D68022D05D04D68EB
:10047000112D02D04D68122D13D198685600032516
:10048000B540A8435600CD68B540284398605868E9
:1004900001259540A8430D79C5F3001595402843E3
:1004A0005860D86856000325B540A84356008D68AB
:1004B000B5402843D8604D6805F08055B5F1805FA0
:1004C00076D100BF3E4D2D6845F001053C4E3560AC
:1004D00035462D6805F00105009500BF00BF394D78
:1004E000960855F8260095072E0F0F25B540A8430E
:1004F000354DAB4202D100251FE059E0334DAB42F0
:1005000001D1012519E0324DAB4201D1022514E0A1
:10051000304DAB4201D103250FE02F4DAB4201D14D
:1005200004250AE02D4DAB4201D1052505E02C4DF7
:10053000AB4201D1062500E007259607360FB540EE
:100540002843204D960845F82600264D2868A043EC
:100550004D6805F48035B5F5803F00D12043214D2D
:1005600028602D1D2868A0434D6805F40035B5F5B9
:10057000003F00D120431B4D2D1D28602D1D2868F4
:10058000A0434D6805F48015B5F5801F00D12043C8
:10059000144D083528602D1D2868A0434D6805F4CA
:1005A0000015B5F5001F00D120430E4D0C35286015
:1005B000521C0D68D540002D7FF426AF78BD000099
:1005C00020380240080001400000024000040240C0
:1005D00000080240000C02400010024000140240DB
:1005E00000180240000401400AB1816101E00B04DF
:1005F00083617047014800687047000000000020D8
:1006000002480068401C0149086070470000002053
:1006100010B5032000F094F8002000F004F800F07A
:1006200015F8002010BD70B5044600F0B5FB4FF47E
:100630007A71B0FBF1F5284602F054F90022214608
:10064000501E00F03EF8002070BD000008B500BF4D
:100650001448006840F000401249086008460068ED
:1006600000F00040009000BF00BF00BF081F0068FE
:1006700040F00100091F08600846006800F0010012
:10068000009000BF00BF032000F05AF8002211467E
:100690006FF00B0000F015F800221146501E00F01C
:1006A00010F808BD2438024000BF00F01F020121ED
:1006B00091404209920002F1E022C2F8001100BF0D
:1006C00070472DE9F05F80460D461646002702F080
:1006D00067FE074639462A46334601F00700C0F157
:1006E000070ABAF1040F02D94FF0040A01E0C0F181
:1006F000070AD14600F1040ABAF1070F02D24FF0FF
:10070000000A01E0A0F1030AD4464FF0010A0AFAF8
:1007100009FAAAF1010A0AEA020A0AFA0CFA4FF0E7
:10072000010B0BFA0CFBABF1010B0BEA030B4AEAD2
:100730000B042146404602F03BFEBDE8F09F00005E
:1007400000BF00F00702064B19684FF6FF0319407F
:10075000044B0B4343EA0221014B196000BF704771
:100760000CED00E00000FA050248006800F4C050FB
:100770007047000000700040F8B5044600260025D0
:10078000207800F00100002874D0207800F00100EB
:1007900000B100BF00BF5148006840F080504F4991
:1007A00008600846006800F08050009000BF00BF5D
:1007B0004B48006840F4807049490860FFF71AFF11
:1007C000064606E0FFF716FF801B642801D90320C8
:1007D000F8BD4348006800F480700028F2D03F481C
:1007E0001030006800F44035606800F44030A842E2
:1007F00072D0207800F0010000286DD0374810300A
:10080000006820F440350121C80590FAA0F0B0FA44
:1008100080F0344A02EB8000C0F880160020C90541
:1008200091FAA1F1B1FA81F102EB8101C1F88006E0
:100830002A481030056005F4007068B3FFF7DAFE4F
:10084000064608E0FFF7D6FE801B41F28831884259
:1008500001D90320BCE74020C10091FAA1F1B1FA0F
:1008600081F108430121B1EB601F04D11B482438FA
:10087000006803E030E01948103000684021CA00E9
:1008800092FAA2F2B2FA82F2114301F01F020121A0
:10089000914008400028D5D000BF00BF606800F438
:1008A0004030B0F5403F0BD10C482438006820F0B0
:1008B000C040616801F0C04108430849243908601C
:1008C00000BF064810300068616801F440310843F9
:1008D00002491031086000BF002079E72438024047
:1008E000007000400000474270B504460D460026E7
:1008F000F848006800F00100A84273D200BF012D43
:1009000005D1F448006840F00400F2490860F1485D
:10091000006820F001002843EE49086000BF084647
:10092000006800F00100A84201D0012070BD2078CD
:1009300000F00200022807D1E748006820F0F0002C
:10094000A1680843E4490860207800F0010000280D
:100950007CD06068022821D12020010391FAA1F106
:10096000B1FA81F108430121B1EB601F03D1DA48EC
:100970000838006802E0D8482C30006820210A03BB
:1009800092FAA2F2B2FA82F2114301F01F0201219F
:100990009140084000286DD10120C7E76068032816
:1009A00021D12020010591FAA1F1B1FA81F108438A
:1009B0000121B1EB601F03D1C7480838006802E08D
:1009C000C5482C30006820210A0592FAA2F2B2FA3A
:1009D00082F2114301F01F02012191400840B0BB97
:1009E0000120A3E79EE06068012820D12020022199
:1009F00091FAA1F1B1FA81F108430121B1EB601F35
:100A000003D1B5480838006802E0B3482C300068CC
:100A10002021022292FAA2F2B2FA82F2114301F0EC
:100A20001F0201219140084088B901207EE7202063
:100A3000010191FAA1F1B1FA81F108430121B1EB71
:100A4000601F05D1A4480838006804E07FE111E088
:100A5000A1482C30006820210A0192FAA2F2B2FAD1
:100A600082F2114301F01F0201219140084008B9B0
:100A700001205BE79848006820F0030061680843A4
:100A800095490860FFF7B6FD06466068022810D158
:100A900008E0FFF7AFFD801B41F28831884201D9A1
:100AA000032043E78C48006800F00C000828F0D1D0
:100AB0004DE16068032810D108E0FFF79BFD801B23
:100AC00041F28831884201D903202FE7824800682B
:100AD00000F00C000C28F0D139E16068012810D139
:100AE00008E0FFF787FD801B41F28831884201D979
:100AF00003201BE77848006800F00C000428F0D1C0
:100B000025E108E0FFF776FD801B41F2883188423D
:100B100001D903200AE77048006800F00C000028A3
:100B2000F0D114E1207800F00200022807D16A48D1
:100B3000006820F0F000A168084367490860207849
:100B400000F0010000287BD06068022820D120201E
:100B5000010391FAA1F1B1FA81F108430121B1EB4E
:100B6000601F03D15C480838006802E05A482C3006
:100B7000006820210A0392FAA2F2B2FA82F211432B
:100B800001F01F02012191400840B8BB0120CDE6D1
:100B90006068032820D12020010591FAA1F1B1FA63
:100BA00081F108430121B1EB601F03D14A480838A5
:100BB000006802E048482C30006820210A0592FABB
:100BC000A2F2B2FA82F2114301F01F020121914018
:100BD000084098B90120A9E66068012821D12020A9
:100BE000022191FAA1F1B1FA81F108430121B1EB9F
:100BF000601F04D138480838006803E033E0364805
:100C00002C3000682021022292FAA2F2B2FA82F27B
:100C1000114301F01F0201219140084018BB01203F
:100C200084E62020010191FAA1F1B1FA81F1084393
:100C30000121B1EB601F04D127480838006803E0A8
:100C40006CE025482C30006820210A0192FAA2F2BB
:100C5000B2FA82F2114301F01F02012191400840D3
:100C600008B9012062E61C48006820F003006168B2
:100C7000084319490860FFF7BDFC06466068022872
:100C800010D108E0FFF7B6FC801B41F288318842A2
:100C900001D903204AE61048006800F00C0008283B
:100CA000F0D13BE06068032810D108E0FFF7A2FC18
:100CB000801B41F28831884201D9032036E606487C
:100CC000006800F00C000C28F0D127E060680128D3
:100CD00014D10CE0003C024008380240FFF78AFCC7
:100CE000801B41F28831884201D903201EE6284842
:100CF000006800F00C000428F0D10FE008E0FFF7D6
:100D000079FC801B41F28831884201D903200DE62D
:100D10001F48006800F00C000028F0D100BF012D32
:100D200005D11C48006840F004001A4908601948C1
:100D3000006820F0010028431649086000BF0846FB
:100D4000006800F00100A84201D00120EEE5207803
:100D500000F00400042807D10D48006820F4E0608A
:100D6000E16808430A490860207800F00800082874
:100D700008D10748006820F46050216940EAC100AA
:100D8000034908600020FFF74EFC0020CEE500007C
:100D900008380240003C024000B500F019F809494B
:100DA000096801F0F001F02292FAA2F2B2FA82F29E
:100DB000D140054A515CC8400449086008460068B3
:100DC00000BD000008380240403B00081800002029
:100DD000F0B5002100230024002200250020264E2B
:100DE000316801F00C0686B3042E04D0082E04D01E
:100DF0000C2E2BD103E021483BE0214839E001F4DF
:100E000070164FF4701797FAA7F7B7FA87F7FE40F6
:100E10001C4FBB5D01F440064FF4400797FAA7F75B
:100E2000B7FA87F7FE40184FBC5D134E366806F4DC
:100E3000803626B1124E5E43B6FBF4F203E00F4E4D
:100E40005E43B6FBF4F2104613E000E000BF0A4E2A
:100E5000361F366806F460464FF4604797FAA7F7E6
:100E6000B7FA87F726FA07F56E1C0127B740F80393
:100E700000BF00BFF0BD0000083802400024F400AD
:100E800000366E01543B0008503B000838B504465C
:100E90000025207800F0010000287DD0FE48006881
:100EA00000F00C0008280CD0FB48006800F00C0093
:100EB0000C282BD1F848006800F48030B0F5803F52
:100EC00024D12020010391FAA1F1B1FA81F1084364
:100ED0000121B1EB601F03D1EF480838006802E040
:100EE000ED482C30006820210A0392FAA2F2B2FAEF
:100EF00082F2114301F01F020121914008400028B5
:100F0000CBD06068002847D1012038BD00BFE2483F
:100F10000838006820F48030DF4908390860084646
:100F2000006820F48020086000BFFFF763FB0546DF
:100F300006E0FFF75FFB401B642801D90320E4E7CC
:100F40002020010391FAA1F1B1FA81F108430121B6
:100F5000B1EB601F03D1D0480838006802E0CE48EA
:100F60002C30006820210A0392FAA2F2B2FA82F22F
:100F7000114301F01F020121914008400028D8D1FF
:100F800000BF606801280AD1C3480838006840F4EF
:100F90008030C149083900E089E008602DE06068D0
:100FA00068B9BD480838006820F48030BA4908396B
:100FB00008600846006820F4802008601DE0606832
:100FC00005280DD1B4480838006840F48020B249A3
:100FD000083908600846006840F4803008600CE07A
:100FE000AD480838006820F48030AB490839086003
:100FF0000846006820F48020086000BF606858B38D
:10100000FFF7F8FA054606E0FFF7F4FA401B6428FC
:1010100001D9032079E72020010391FAA1F1B1FA67
:1010200081F108430121B1EB601F03D19A480838D0
:10103000006802E098482C30006820210A0392FAE8
:10104000A2F2B2FA82F2114301F01F020121914093
:1010500008400028D8D02AE0FFF7CCFA054606E081
:10106000FFF7C8FA401B642801D903204DE7202070
:10107000010391FAA1F1B1FA81F108430121B1EB29
:10108000601F03D184480838006802E082482C3091
:10109000006820210A0392FAA2F2B2FA82F2114306
:1010A00001F01F020121914008400028D8D120788A
:1010B00000F00200022845D17748006800F00C00DB
:1010C00004280AD07448006800F00C000C283BD1BA
:1010D0007148006800F48030A8BB2020022191FAFA
:1010E000A1F1B1FA81F108430121B1EB601F03D1F5
:1010F00069480838006802E067482C300068202101
:10110000022292FAA2F2B2FA82F2114301F01F0215
:1011100001219140084020B1E068012801D0012060
:10112000F3E65D48001F006820F4F8504FF4F852D1
:1011300092FAA2F2B2FA82F221699140084356492A
:10114000091F08607DE0FFE7E068E0B3012191FA44
:10115000A1F0B0FA80F0514A42F82010FFF74AFAA5
:10116000054606E0FFF746FA401B642801D9032034
:10117000CBE62020022191FAA1F1B1FA81F10843D6
:101180000121B1EB601F03D143480838006802E039
:1011900041482C3000682021022292FAA2F2B2FAD1
:1011A00082F2114301F01F02012191400840002802
:1011B000D8D03948001F006820F4F8504FF4F85296
:1011C00092FAA2F200E008E0B2FA82F221699140BC
:1011D00008433149091F086033E00020012191FADA
:1011E000A1F1B1FA81F12D4A42F82100FFF702FA8C
:1011F000054606E0FFF7FEF9401B642801D90320ED
:1012000083E62020022191FAA1F1B1FA81F108438D
:101210000121B1EB601F03D11F480838006802E0CC
:101220001D482C3000682021022292FAA2F2B2FA64
:1012300082F2114301F01F02012191400840002871
:10124000D8D1207800F0100010286FD11248006823
:1012500000F00C00A0BB2020010191FAA1F1B1FA2D
:1012600081F108430121B1EB601F03D10A4808381E
:10127000006802E008482C30006820210A0192FA38
:10128000A2F2B2FA82F2114301F01F020121914051
:10129000084040B1A06903E008380240000047421E
:1012A00008B9012031E6FA49206A096801F4604171
:1012B00088421ED9206A02F08FF810B1012024E67E
:1012C00039E0F348006820F46040216A0843F0499F
:1012D00008600846006820F07F404FF07F4292FA95
:1012E000A2F2B2FA82F2E16991400843E84908604B
:1012F0001DE0E748006820F46040216A0843E449A3
:1013000008600846006820F07F404FF07F4292FA64
:10131000A2F2B2FA82F2E16991400843DC49086026
:10132000206A02F059F810B10120EEE588E00020B3
:10133000FFF779F984E0A069F0B30120010291FA86
:10134000A1F1B1FA81F1D34A42F82100FFF752F935
:10135000054606E0FFF74EF9401B642801D903203B
:10136000D3E52020010191FAA1F1B1FA81F10843FE
:101370000121B1EB601F03D1C548001F006802E0E6
:10138000C3483030006820210A0192FAA2F2B2FA72
:1013900082F2114301F01F02012191400840002810
:1013A000D8D0BB48006820F46040216A0843B8499F
:1013B00008600846006800E00DE020F07F404FF034
:1013C0007F4292FAA2F2B2FA82F2E16991400843B6
:1013D000AF49086034E000204FF4807191FAA1F128
:1013E000B1FA81F1AB4A42F82100FFF703F9054653
:1013F00006E0FFF7FFF8401B642801D9032084E5CD
:101400002020010191FAA1F1B1FA81F108430121F3
:10141000B1EB601F03D19E48001F006802E09C48AA
:101420003030006820210A0192FAA2F2B2FA82F268
:10143000114301F01F020121914008400028D8D13A
:10144000207800F0080008286ED16069A8B3012058
:1014500090FAA0F1B1FA81F18E4A02EB8101C1F854
:101460008006FFF7C7F8054606E0FFF7C3F8401B04
:10147000642801D9032048E54020022191FAA1F116
:10148000B1FA81F108430121B1EB601F03D180481B
:10149000001F006802E07E483030006840210222D0
:1014A00092FAA2F2B2FA82F2114301F01F02012174
:1014B000914008400028D8D036E0FFE70020012105
:1014C00091FAA1F1B1FA81F1724A02EB8101C1F8FE
:1014D0008006FFF78FF8054606E0FFF78BF8401B04
:1014E000642801D9032010E54020022191FAA1F1DE
:1014F000B1FA81F108430121B1EB601F03D16448C7
:10150000001F006802E0624830300068402102227B
:1015100092FAA2F2B2FA82F2114301F01F02012103
:10152000914008400028D8D1207800F00400042819
:101530006FD100BF56482030006840F080505449B9
:10154000203108600846006800F08050009000BF1D
:1015500000BF5148006840F480704F490860FFF7B1
:1015600049F8054606E0FFF745F8401B642801D915
:101570000320CAE44848006800F480700028F2D0D4
:1015800000BF43483030006820F48070404930315B
:1015900008600846006820F48060086000BFFFF71C
:1015A00029F8054608E0FFF725F8401B41F288318D
:1015B000884201D90320A8E44020C10091FAA1F19A
:1015C000B1FA81F108430121B1EB601F03D130482A
:1015D000001F006802E02E48303000684021CA0039
:1015E00092FAA2F2B2FA82F2114301F01F02012133
:1015F000914008400028D6D100BFA068012809D139
:1016000023483030006840F4807021493031086050
:101610002EE090E0A06868B91D483030006820F4E2
:1016200080701B49303108600846006820F48060F3
:1016300008601DE0A06805280DD11548303000680D
:1016400040F480601249303108600846006840F478
:10165000807008600CE00E483030006820F4807024
:101660000B49303108600846006820F4806008604B
:1016700000BFA06890B3FEF7BDFF05460EE0FEF781
:10168000B9FF401B41F28831884207D903203CE46E
:101690000438024000004742007000404020C10072
:1016A00091FAA1F1B1FA81F108430121B1EB601F78
:1016B00002D18048006802E07E4834300068402152
:1016C000CA0092FAA2F2B2FA82F2114301F01F02AA
:1016D0000121914008400028D1D02CE0FFE7FEF71F
:1016E00089FF054608E0FEF785FF401B41F288317F
:1016F000884201D9032008E44020C10091FAA1F1F9
:10170000B1FA81F108430121B1EB601F02D16948B0
:10171000006802E06748343000684021CA0092FA4D
:10172000A2F2B2FA82F2114301F01F0201219140AC
:1017300008400028D7D1606AF0B35E4808300068DE
:1017400000F00C000C287AD0606A022879D10020C1
:101750004FF0807191FAA1F1B1FA81F1564A42F845
:101760002100FEF747FF054606E0FEF743FF401B5A
:10177000642801D903204DE42020010591FAA1F14C
:10178000B1FA81F108430121B1EB601F02D1494850
:10179000006802E047483430006820210A0592FAC8
:1017A000A2F2B2FA82F2114301F01F02012191402C
:1017B00008400028D9D100E07AE0D4E90A010843C2
:1017C000216B08433B490831096821F47D01084336
:1017D0003849083108600120010691FAA1F1B1FAF7
:1017E00081F1354A42F82100FEF704FF054606E084
:1017F000FEF700FF401B642801D903200AE42020E3
:10180000010591FAA1F1B1FA81F108430121B1EB8F
:10181000601F02D12748006802E026483430006883
:1018200020210A0592FAA2F2B2FA82F2114301F0E3
:101830001F020121914008400028D9D038E035E04E
:10184000FFE700204FF0807191FAA1F1B1FA81F128
:10185000194A42F82100FEF7CDFE054606E0FEF7E4
:10186000C9FE401B642801D9032059E4202001054A
:1018700091FAA1F1B1FA81F108430121B1EB601FA6
:1018800002D10C48006802E00A4834300068202188
:101890000A0592FAA2F2B2FA82F2114301F01F0293
:1018A0000121914008400028D9D101E0012037E40E
:1018B000002035E4003802400000474270B504467D
:1018C000002500BF207F012801D1022070BD01202A
:1018D000207700BF0220607700BFCA2021684862DD
:1018E00053202168486200BF2068806820F480602F
:1018F000216888602068806820F4804021688860C2
:10190000FEF778FE054612E0FEF774FE401BB0F5C8
:101910007A7F0CD900BFFF202168486200BF0320F6
:10192000607700BF0020207700BF0320CEE720684B
:10193000C068C0F380000028E6D000BFFF20216807
:10194000486200BF0120607700BF0020207700BF01
:1019500000BFBBE72DE9F04104460D4616460027BF
:1019600000BF207F012802D10220BDE8F0810120C4
:10197000207700BF0220607700BFCA20216848623C
:1019800053202168486200BF2068806800F48060AE
:10199000E0B1FEF72FFE074612E0FEF72BFEC01B5C
:1019A000B0F57A7F0CD900BFFF202168486200BFE4
:1019B0000320607700BF0020207700BF0320D4E71A
:1019C0002068C068C0F380000028E6D120688068E5
:1019D00020F4806021688860FEF70CFE074612E064
:1019E000FEF708FEC01BB0F57A7F0CD900BFFF20C0
:1019F0002168486200BF0320607700BF0020207785
:101A000000BF0320B1E72068C068C0F38000002851
:101A1000E6D0206845612068806820F007002168D2
:101A200088602068806830432168886013480068B7
:101A300040F480101149086010480830006840F4F4
:101A400080100E49083108602068806840F48040AA
:101A5000216888602068806840F480602168886020
:101A600000BFFF202168486200BF0120607700BFEF
:101A70000020207700BF00BF77E70000000401408E
:101A80007047000010B504462068C068C0F380208D
:101A900050B12046FFF7F4FF2068C06800F08000D6
:101AA00060F490602168C8604FF4801002490860BB
:101AB0000120607710BD00001404014010B50446F9
:101AC0000CB9012010BD607F20B90020207720468E
:101AD00000F04EF80220607700BFCA2021684862FB
:101AE00053202168486200BF204601F0E1FC40B16C
:101AF00000BFFF202168486200BF042060770120FA
:101B0000E0E72068806819490840216888602169F9
:101B1000606808436169084321688968084321684F
:101B200088602168E068086120680169208941EACD
:101B30000040216808612068C06820F080002168AA
:101B4000C8602068006C20F4802021680864206848
:101B5000006CA16908432168086400BFFF20216868
:101B6000486200BF012060770020ABE7BFFF8FFF16
:101B700010B504460B492068884212D10120810526
:101B800091FAA1F1B1FA81F1074A02EB8101C1F8A2
:101B90008006002201210320FEF793FD0320FEF7BB
:101BA00083FD10BD00280040000047422DE9F041B0
:101BB00004460D461646002700BF207F012802D1AB
:101BC0000220BDE8F0810120207700BF022060776D
:101BD0004EB9687800F01000102804D1687800F041
:101BE000EF000A30687086B9E87801F054FC03040D
:101BF000687801F050FC43EA0023A87801F04BFC20
:101C00000343287843EA403711E0687801F038FC54
:101C10000746A87801F034FC0746E87800046978A4
:101C200040EA0120A9780843297840EA413700BFFB
:101C3000CA202168486253202168486200BF2046BC
:101C400001F036FC60B100BFFF202168486200BF90
:101C50000420607700BF0020207700BF0120B0E79C
:101C600013483840216848602068C06820F0800030
:101C70002168C860204600F0B3F860B100BFFF20C3
:101C80002168486200BF0420607700BF00202077F1
:101C900000BF012095E700BFFF202168486200BF18
:101CA0000120607700BF0020207700BF00BF88E7D9
:101CB0003FFFFF002DE9F04104460D461646002780
:101CC00000BF207F012802D10220BDE8F081012061
:101CD000207700BF02206077CEB92068806800F0CE
:101CE000400000B102E00020E87000BF287801F059
:101CF000D2FB0304687801F0CEFB43EA0023A87806
:101D000001F0C9FB0343E87843EA004716E0206886
:101D1000806800F0400020B1287801F0B1FB074650
:101D200002E00020E87000BF28780004697840EAEB
:101D30000120A9780843E97840EA014700BFCA209A
:101D40002168486253202168486200BF204601F0A4
:101D5000AFFB60B100BFFF202168486200BF0420D4
:101D6000607700BF0020207700BF0120ADE71B484F
:101D70003840216808602068806820F4802021684D
:101D80008860D5E903010843216889680843216810
:101D900088602068C06820F080002168C860204604
:101DA00000F01EF860B100BFFF202168486200BF4C
:101DB0000420607700BF0020207700BF012084E767
:101DC00000BFFF202168486200BF0120607700BF8C
:101DD0000020207700BF00BF77E700007F7F7F00F3
:101DE00070B5044600252068806800F02000B8B96E
:101DF0002068C06820F0A0002168C860FEF7FAFBE8
:101E0000054607E0FEF7F6FB401BB0F57A7F01D9E7
:101E1000032070BD2068C06800F020000028F1D0C9
:101E20000020F6E710B504462068406B00F480708F
:101E300058B14FF48070216888630120A0640020AD
:101E4000E064204600F04EF844E02068406B00F06B
:101E5000020038B1022021688863E064204600F067
:101E600042F837E02068406B00F0080040B10820DD
:101E7000216888630420E064204600F034F829E0FB
:101E80002068406B00F0200040B12020216888636A
:101E90000620E064204600F026F81BE02068406B36
:101EA00000F0100040B11020216888630520E06434
:101EB000204600F018F80DE02068406B00F4007038
:101EC00040B14FF40070216888630720E064204629
:101ED00000F009F82068C06B4CF23A318843216861
:101EE000C86310BD70477047704738B50446206816
:101EF0004068C0F3801068B12068806800F001007D
:101F000040B120688068C0F3801018B92046A16CE9
:101F1000884738BD20684068C0F3C01040B12068D1
:101F20008068C0F3400018B12046E16C8847F0E7B4
:101F300020684068C0F34010002854D020688068B2
:101F4000C0F3001038B1606D40F0020060656FF0C2
:101F500010002168886020688068C0F3401078B164
:101F6000606D40F00100606500BF206880680090EF
:101F70002068006820F040002168086000BF00BFB2
:101F800020688068C0F3801080B194F85100122856
:101F90000CD0606D40F00400606500BF2068C06830
:101FA000009020688068009000BF00BF20688068B3
:101FB000C0F3002048B1606D40F00800606500BFCC
:101FC00020688068009000BF00BF606D58B1206835
:101FD000406820F0E00021684860012084F851004A
:101FE0002046FFF781FF00BF93E710B504460CB908
:101FF000012010BD94F8510028B9002084F8500049
:10200000204600F037F8022084F85100206800686C
:1020100020F0400021680860D4E901010843E1682C
:1020200008432169084361690843218B01F4007169
:102030000843E1690843216A0843A16A084321680B
:1020400008600421A06901EA1040616A0843216820
:1020500048602168E06A08612068C06920F4006077
:102060002168C86100206065012084F851000020CB
:10207000BFE7000010B586B00446394920688842A1
:1020800024D100BF3748006840F4805035490860CB
:102090000846006800F48050009000BF00BFE020B8
:1020A000019002200290002003900320049005205C
:1020B000059001A92C48FEF7A1F900221146232022
:1020C000FEF7FFFA2320FEF7EFFA46E027492068E3
:1020D000884242D100BF2348001D006840F4804080
:1020E0002049091D08600846006800F480400090FF
:1020F00000BF00BF881401900220029001200390CD
:10210000032004900520059001A91948FEF776F9EF
:102110004FF4204001900220029000200390032001
:1021200004900520059001A91148FEF767F94FF4C6
:10213000804001900220029003900320049005202B
:10214000059001A90A48FEF759F9002211462420FA
:10215000FEF7B7FA2420FEF7A7FA06B010BD00007C
:1021600000300140203802400000024000380040AA
:10217000000402402DE9FC4104460E4615461F4668
:102180000020019094F8510001287BD106B115B9C7
:102190000120BDE8FC8100BF94F85000012801D166
:1021A0000220F6E7012084F8500000BF222084F8C6
:1021B000510000206065A663A587E587A064E06400
:1021C0002063A086E086A068B0F5004F05D12068A6
:1021D000006820F4804021680860A06AB0F5005FC4
:1021E0000DD100BF2068006820F40050216808600D
:1021F0002068006840F400502168086000BF6068F3
:10220000B0F5827F0ED1A06860B900BF002084F8CD
:10221000500000BF2B46324631462046009700F062
:10222000A6F9B6E72068006800F04000402805D015
:102230002068006840F0400021680860E06810BB3A
:1022400012E03B4600220121204601F071F908B15D
:1022500003209EE72068C068C1B2A26B501CA06337
:102260001170E08F401EE087E08F0128E9DCA06A52
:10227000B0F5005F28D12068006840F480502168E4
:10228000086021E091E012E03B4600220121204657
:1022900001F04EF908B103207BE72068C068A16B0C
:1022A0000880A06B801CA063E08F401EE087E08F59
:1022B0000128E9DCA06AB0F5005F05D1206800685C
:1022C00040F48050216808603B46002201212046EE
:1022D00001F02EF908B103205BE7E06838B9206807
:1022E000C068C1B2A26B501CA063117006E02068E8
:1022F000C068A16B0880A06B801CA063E08F401EAB
:10230000E087A06AB0F5005F12D13B4600220121B0
:10231000204601F00DF928B1606D40F002006065C3
:10232000032036E72068C06880B20190BDF8040041
:102330006068B0F5827F0DD1A068B0F5004F03D082
:10234000A068B0F5806F05D12068006820F04000DB
:1023500021680860012084F85100A06AB0F5005F90
:102360001DD120688068C0F30010C0B1606D40F0DE
:102370000200606500BF2068006820F400502168FA
:1023800008602068006840F400502168086000BFC1
:1023900000BF002084F8500000BF0120F9E600BF14
:1023A000002084F8500000BFF3E60220F1E6F8B503
:1023B00004460E4615461F4694F85100012874D174
:1023C00006B10DB90120F8BD00BF94F850000128F6
:1023D00001D10220F7E7012084F8500000BF12204D
:1023E00084F85100002060652663A586E586E064D8
:1023F000A064A063A087E087A06AB0F5005F0DD15C
:1024000000BF2068006820F4005021680860206840
:10241000006840F400502168086000BFA068B0F573
:10242000004F05D12068006840F4804021680860B2
:102430002068006800F04000402805D0206800684F
:1024400040F0400021680860E06878BB606810B127
:10245000E08E012808D1216B481C20630878216890
:10246000C860E08E401EE08611E03B46002202215B
:10247000204601F05DF808B10320A4E7216B481C59
:10248000206308782168C860E08E401EE086E08EF8
:102490000028EADCA06AB0F5005F38D12068006847
:1024A00040F480502168086031E05EE0FFE760683A
:1024B00010B1E08E012809D1206B00882168C86026
:1024C000206B801C2063E08E401EE08612E03B46BD
:1024D00000220221204601F02BF808B1032072E708
:1024E000206B00882168C860206B801C2063E08E10
:1024F000401EE086E08E0028E9DCA06AB0F5005FAF
:1025000005D12068006840F48050216808603B468F
:1025100000220221204601F00BF828B1606D40F046
:102520002000606503204EE73B46012280212046C3
:1025300000F0FEFF28B1606D40F0200060650320D0
:1025400041E7A06840B900BF2068C06800902068DB
:102550008068009000BF00BF012084F8510000BFD8
:10256000002084F8500000BF2DE702202BE72DE962
:10257000F84304460E4617461D46DDF8208000202D
:10258000009094F85100012803D094F851002228BB
:1025900076D10EB107B115B90120BDE8F88300BFAF
:1025A00094F85000012801D10220F6E7012084F8B8
:1025B000500000BF94F85100012802D1322084F865
:1025C000510000206065A763A587E5872663A5867F
:1025D000E586A064E064A06AB0F5005F0DD100BF9D
:1025E0002068006820F400502168086020680068B6
:1025F00040F400502168086000BF2068006800F0C7
:102600004000402805D02068006840F04000216864
:102610000860E068B0F5006F75D1606830B160683F
:10262000B0F5827F0CD1E08E012809D1206B0088A3
:102630002168C860206B801C2063E08E401EE0860D
:10264000E08EF0B9A06AB0F5005F05D1206800689F
:1026500040F4805021680860434600220121204652
:1026600000F066FF08B1032097E72068C068A16BFF
:102670000880A06B801CA063E08F401EE087C7E04D
:1026800019E131E0434600220221204600F050FFCC
:1026900008B1032081E7206B00882168C860206BA7
:1026A000801C2063E08E401EE086E08E48B9A06A60
:1026B000B0F5005F05D12068006840F480502168C3
:1026C0000860434600220121204600F031FF08B196
:1026D000032062E72068C068A16B0880A06B801CA3
:1026E000A063E08F401EE087E08E0028CADC6068AF
:1026F0000028C4D1434600220121204600F018FFE3
:1027000010B1032049E70AE02068C068A16B088087
:10271000A06B801CA063E08F401EE08778E06068BB
:1027200030B16068B0F5827F0BD1E08E012808D10E
:10273000216B481C206308782168C860E08E401E29
:10274000E086E08ED0B9A06AB0F5005F05D12068C0
:10275000006840F48050216808604346002201214F
:10276000204600F0E5FE08B1032016E72068C068A7
:10277000A16B0870E08F401EE08749E030E04346DF
:1027800000220221204600F0D3FE08B1032004E716
:10279000216B481C206308782168C860E08E401EC9
:1027A000E086E08E48B9A06AB0F5005F05D12068E8
:1027B000006840F4805021680860434600220121EF
:1027C000204600F0B5FE08B10320E6E62068C068A8
:1027D000C1B2A26B501CA0631170E08F401EE08755
:1027E000E08E0028CBDC606890B9434600220121CE
:1027F000204600F09DFE08B10320CEE62068C068A8
:10280000C1B2A26B501CA0631170E08F401EE08724
:10281000A06AB0F5005F12D1434600220121204694
:1028200000F086FE28B1606D40F002006065032074
:10283000B3E62068C06880B20090BDF8000043464F
:1028400001228021204600F073FE28B1606D40F027
:10285000200060650320A0E6012084F85100A06AF2
:10286000B0F5005F21D120688068C0F30010E0B1AE
:10287000606D40F002006065A06AB0F5005F0DD1A8
:1028800000BF2068006820F40050216808602068BC
:10289000006840F400502168086000BF00BF0020BD
:1028A00084F8500000BF012077E600BF002084F8C4
:1028B000500000BF71E602206FE6042808D14FF0F7
:1028C000E021096941F004014FF0E022116107E0C5
:1028D0004FF0E021096921F004014FF0E02211617D
:1028E0007047704770B504462546681EB0F1807F7A
:1028F00001D301200FE0681E4FF0E02148610F2155
:102900004FF0FF3000F054FD00204FF0E0218861CF
:1029100007200861002070BD10B5FFF7E2FF10BD71
:102920007047F8B50446002500262068006800F0CE
:1029300001052068C06800F4807625B11EB1E06B07
:1029400040F00100E06320680068C0F340052068A3
:10295000406900F0010625B11EB1E06B40F00400B3
:10296000E06320680068C0F3800525B11EB1E06B0C
:1029700040F00200E06320680068C0F3C00525B1A4
:102980001EB1E06B40F00800E06320680068C0F30F
:1029900040152068C06800F020061DB116B1204621
:1029A00000F0F4FE20680068C0F3C0152068C0681D
:1029B00000F080061DB116B1204600F045FF2068EA
:1029C0000068C0F380152068C06800F040061DB1A3
:1029D00016B1204600F0C2FEE06B70B100BF206867
:1029E0000068009020684068009000BF00BF012090
:1029F00084F839002046FFF793FFF8BD7047704711
:102A000038B50446042C2AD169462E2000F0FCF982
:102A100008B9002038BD9DF8000000F01F000090AC
:102A20009DF8000000909DF800102E2000F052FB51
:102A300008B90020EEE76946242000F0E5F908B95E
:102A40000020E7E79DF8000000F0BF0000909DF82F
:102A50000010242000F03EFB08B90020DAE794BB08
:102A60006946242000F0D0F908B90020D2E79DF88B
:102A7000000000F0BF0000909DF8000040F0400012
:102A800000909DF80010242000F024FB08B90020DD
:102A9000C0E769462E2000F0B7F908B90020B9E771
:102AA0009DF8000000F01F0000909DF8000040EA33
:102AB0008410C0B200909DF800102E2000F00AFB98
:102AC00008B90020A6E7FFE7012C32D1694624208F
:102AD00000F09AF908B900209CE79DF8000000F08A
:102AE000BF0000909DF8000040F0400000909DF86D
:102AF0000010242000F0EEFA08B900208AE76946A9
:102B00002E2000F081F908B9002083E79DF800002D
:102B100000F01F0000909DF8000040EA8410C0B251
:102B200000909DF800102E2000F0D4FA08B9002083
:102B300070E7022C32D16946242000F065F908B90B
:102B4000002067E79DF8000000F0BF0000909DF8AE
:102B5000000040F0400000909DF80010242000F09C
:102B6000B9FA08B9002055E769462E2000F04CF963
:102B700008B900204EE79DF8000000F01F0000900B
:102B80009DF8000040EA8410C0B200909DF800104B
:102B90002E2000F09FFA08B900203BE7032C32D129
:102BA0006946242000F030F908B9002032E79DF88A
:102BB000000000F0BF0000909DF8000040F04000D1
:102BC00000909DF80010242000F084FA08B900203D
:102BD00020E769462E2000F017F908B9002019E710
:102BE0009DF8000000F01F0000909DF8000040EAF2
:102BF0008410C0B200909DF800102E2000F06AFAF8
:102C000008B9002006E7012004E738B505460C4660
:102C100069462F2000F0F8F808B9002038BD802D53
:102C20000CD19DF8000000F08000009010B1012050
:102C30002070F3E7002020700120EFE7402D0CD139
:102C40009DF8000000F04000009010B101202070BD
:102C5000E4E7002020700120E0E7202D0FD101D112
:102C6000012000E000209DF800100840009010B105
:102C700001202070D2E7002020700120CEE7002044
:102C8000CCE738B5044669462F2000F0BDF808B9F6
:102C9000002038BD9DF8000000F01F0000909DF856
:102CA000000020700120F4E738B50446694624206E
:102CB00000F0AAF808B9002038BD9DF8000000F027
:102CC000F70000909DF8000040EAC400C0B20090F8
:102CD0009DF80010242000F0FDF908B90020EBE772
:102CE0000120E9E708B56946172000F08DF89DF846
:102CF000000040F0800000909DF80010172000F0C8
:102D0000E9F908BD70B586B00020059002AD6E1CD3
:102D100004A92020FFF779FF9DF81000012869D150
:102D200005A8FFF7AEFF9DF8140010B9002006B00B
:102D300070BD04A94020FFF768FF9DF8100001282E
:102D400004D1202005902CA000F0C6FD0022102107
:102D50002B48FDF749FCE82003904FF480530122F3
:102D600003A92848FFF723FB002437E04FF48050E5
:102D700001232A46294600902248FFF7F8FB4FF42A
:102D8000805001233246314600901E48FFF7EFFB8A
:102D90004FF4805001232A46294600901948FFF736
:102DA000E6FB4FF48050012332463146009015482F
:102DB000FFF7DDFB4FF4805001232A46294600909F
:102DC0001048FFF7D4FB4FF48050012332463146C0
:102DD00000900C48FFF7CBFB601CC4B29DF81400B8
:102DE0008442C3DB012210210548FDF7FDFB9DF85D
:102DF00014009CE700209AE74F56524E210D0A001E
:102E0000000002405001002038B504460D46002065
:102E10000090002210211048FDF7E6FB0120FDF78D
:102E2000D0FA44F0800400944FF4805301226946A4
:102E30000A48FFF7BCFA4FF480530422294607489A
:102E4000FFF798F9012210210348FDF7CDFB01207F
:102E5000FDF7B7FA012038BD000002405001002004
:102E600038B5044669462020FFF7CEFF08B9002098
:102E700038BD9DF8000000F0F800009004F0070055
:102E80009DF80010084300909DF80010202000F0ED
:102E900021F908B90020EBE70120E9E738B504463D
:102EA00069462320FFF7B0FF08B9002038BD9DF820
:102EB000000000F07F0000909DF8000040EAC41080
:102EC000C0B200909DF80010232000F003F908B96B
:102ED0000020EBE70120E9E738B5044669462320E6
:102EE000FFF792FF08B9002038BD9DF8000000F000
:102EF000CF0000909DF8000040EA0410C0B200909E
:102F00009DF80010232000F0E5F808B90020EBE759
:102F10000120E9E738B5044669462220FFF774FF2F
:102F200008B9002038BD002000909DF80000204323
:102F300000909DF80010222000F0CCF808B9002085
:102F4000F0E70120EEE700001CB5044601A92020AF
:102F5000FFF75AFF08B900201CBD69462320FFF780
:102F600053FF08B90020F7E79DF8040000F0F000D7
:102F700038B92948007800F0F0009DF804100843A3
:102F8000019024B1012C1FD0022C30D109E09DF812
:102F90000400214908709DF8040000F00F00019022
:102FA00027E09DF8040000F0F70001909DF8040070
:102FB00001909DF8000000F0F70000909DF80000DF
:102FC00040F00800009014E09DF8040000F0F700C5
:102FD00001909DF8040040F0080001909DF8000069
:102FE00000F0F70000909DF80000009001E0002044
:102FF000B2E700BF9DF80410202000F06BF808B97C
:103000000020A9E79DF80010232000F063F808B91C
:103010000020A1E701209FE71400002038B50446F6
:1030200069462020FFF7F0FE08B9002038BD9DF862
:10303000000000F00F0000909DF8000040EA04102E
:10304000C0B200909DF80010202000F043F808B9AD
:103050000020EBE70120E9E738B5044669462E2059
:10306000FFF7D2FE08B9002038BD9DF8000000F03F
:10307000DF0000909DF8000040EA4410C0B20090CC
:103080009DF800102E2000F025F808B90020EBE78D
:103090000120E9E738B504461F2C01DD002038BDCA
:1030A00069462E20FFF7B0FE08B90020F7E79DF82B
:1030B000000000F0E00000909DF800002043009028
:1030C0009DF800102E2000F005F808B90020E6E772
:1030D0000120E4E713B582B00446002001900022ED
:1030E00010211248FDF780FA0120FDF76AF924F05B
:1030F000800424F0400401944FF48053012201A97C
:103100000B48FFF754F94FF48053012203A90848F4
:10311000FFF74DF9012210210448FDF765FA01205F
:10312000FDF74FF9012004B010BD0000000002407F
:103130005001002000B587B000BF6648006840F02D
:103140000400644908600846006800F0040001902B
:1031500000BF00BF00BF0846006840F001000860E3
:103160000846006800F00100019000BF00BF00BFEA
:103170000846006840F0020008600846006800F059
:103180000200019000BF00BF00BF0846006840F089
:10319000080008600846006800F00800019000BFC1
:1031A00000BF4FF4005002904B4803900020049061
:1031B00002A94A48FDF722F90120029003900490E9
:1031C0000020059002A94548FDF718F9CC2002908F
:1031D0000120039000200490059002A93F48FDF7CC
:1031E0000DF9012002903C4803900020049002A9B0
:1031F0003B48FDF703F941F21210029001200390C1
:1032000000200490059002A93548FDF7F7F830201A
:103210000290002003900120049002A92F48FDF79E
:10322000EDF840F602000290012003900220049085
:103230000020059002A92B48FDF7E0F84FF48060CC
:1032400002900120039004900020059002A92548D7
:10325000FDF7D4F84FF40840029001200390049049
:103260000020059002A91E48FDF7C8F890200290A2
:103270000120039000200490059002A91948FDF751
:10328000BDF84FF4187002900020039001200490C4
:1032900002A91448FDF7B2F8012281210F48FDF779
:1032A000A3F900224C210D48FDF79EF9002241F2BE
:1032B00012110B48FDF798F9002240F69241094897
:1032C000FDF792F901224FF408410548FDF78CF90A
:1032D00007B000BD1C380240000031100008024059
:1032E000000002400004024000B587B01A481B49A4
:1032F0000860002048607F2118488160FF21C1607C
:103300000021016141618161FEF7D8FB00208DF849
:1033100008008DF809008DF80A000590069001223A
:1033200002A90E48FEF7C6FC07208DF80400032012
:103330008DF8050012208DF8060016208DF8070084
:10334000012201A90548FEF731FC042201210348AE
:10335000FEF700FB07B000BD00280040740000200D
:1033600010B50C480C4908604FF482704860002189
:1033700009488160C160016141614FF40071816160
:103380000021C1610162416281620A21C162FEF7CE
:103390002CFE10BD003001405001002000BFFEE7B0
:1033A00002480068C0F30220704700000CED00E006
:1033B00010B5002807DA0A07140E054A00F00F03BB
:1033C0001B1FD45403E00A07130E024A135410BD06
:1033D00018ED00E000E400E0F8B505460026002402
:1033E0002548006800F0F00058BB23481C300068F6
:1033F00000F0805018B1FDF7B7F906461AE000BF9B
:103400001D481C30006840F080501B491C3108608A
:103410000846006800F08050009000BF00BFFDF734
:10342000A3F9064614481C30006820F08050124969
:103430001C310860B6F5C05F03D1B5F5404F00D12F
:10344000012400BF012C05D10C48006840F00400A5
:103450000A4908600948006820F001002043074934
:10346000086000BF0846006800F00100A04201D0DB
:103470000120F8BD0020FCE708380240003C024073
:10348000014600BF080900EB8000420001F00F0078
:103490001044C0B270470146002203E0521CA1F163
:1034A0000A00C1B20A29F9DA100741EA1060704730
:1034B00070B5044600252068C06800F04000A0B93F
:1034C000681E2168C860FDF795F8054607E0FDF71E
:1034D00091F8401BB0F57A7F01D9032070BD2068B8
:1034E000C06800F040000028F1D00020F6E700009E
:1034F00010B50248FEF7C6FA10BD000074000020A7
:1035000010B50248FEF78EFC10BD000094000020AC
:1035100010B50248FEF7E9FC10BD00005001002084
:1035200010B50248FEF7E1FC10BD0000A801002024
:103530002DE9F04104460E4617461D464FF000089F
:10354000FDF758F88046002F3ED132E0681C78B372
:103550002DB1FDF74FF8A0EB0800A84229D920684B
:10356000406820F0E000216848602068006820F092
:10357000400021680860A06AB0F5005F0DD100BF6F
:103580002068006820F40050216808602068006806
:1035900040F400502168086000BF012084F8510009
:1035A00000BF002084F8500000BF0320BDE8F08178
:1035B000FFE7206880683040B04201D1012000E080
:1035C00000200028C2D03BE030E0681C70B32DB171
:1035D000FDF710F8A0EB0800A84227D92068406842
:1035E00020F0E000216848602068006820F040007A
:1035F00021680860A06AB0F5005F0DD100BF2068A7
:10360000006820F40050216808602068006840F4D9
:1036100000502168086000BF012084F8510000BFFD
:10362000002084F8500000BF0320BFE720688068B6
:103630003040B04201D1012000E000200028C4D178
:103640000020B3E710B5FCF7DBFFFFF765F910BD0D
:1036500010B596B000BF2648006840F0805024495D
:1036600008600846006800F08050019000BF00BF6D
:103670002048006820F4C05040F400601D490860F4
:103680000620099001200B900C9010200D90022034
:10369000129000211391810414918105159109A8BC
:1036A000FDF7F4FB0F200490012005900020069008
:1036B00007900890002104A8FDF716F90120029058
:1036C0000004039002A8FDF757F8FDF765FB4FF4DF
:1036D0007A71B0FBF1F42046FFF704F90420FFF7FC
:1036E000ECF800221146501EFCF7EBFF16B010BD9F
:1036F00024380240007000401448006840F4807094
:1037000012490860114808300068114908400F4903
:10371000083108600D4800680E4908400B490860F0
:103720000846006820F480200860084808300068D7
:1037300020F47D000549083108600020091D08605B
:103740004FF00060044908607047000000380240F4
:103750000CC0FF88FEFFFEEE08ED00E010B5044649
:103760002068C06820F040002168C86094F83900E3
:10377000322803D1222084F8390002E0012084F8A5
:1037800039002046FFF73BF9002010BD70B5044614
:10379000002694F83960222E01D0322E52D1A06832
:1037A000B0F5805F13D1A56A206940B920684068F0
:1037B000C0F308002880A06A801CA06219E020687D
:1037C0004068C0B22880A06A401CA06211E0206955
:1037D00038B920684068C1B2A26A501CA06211705A
:1037E00007E02068406800F07F01A26A501CA062D8
:1037F0001170E08D401E80B2E08508BB2068C06873
:1038000020F020002168C86094F83900322803D1E4
:10381000122084F839000EE02068C06820F480701F
:103820002168C8602068406920F001002168486173
:10383000012084F839002046FFF7E0F8002070BD31
:103840000020FCE70220FAE710B50146002391F8BA
:103850003930122B01D0322B2CD18868B0F5805F23
:103860000FD10A6A1088C0F308000C68606008690C
:1038700018B9086A801C086209E0086A401C0862DE
:1038800005E00C6A601C086220780C686060C88CD7
:10389000401E80B2C88458B90868C06820F0800013
:1038A0000C68E0600868C06840F040000C68E060A8
:1038B000002010BD0220FCE710B50248FFF731F8E8
:1038C00010BD00000002002010B50248FFF729F8E3
:1038D00010BD0000400200200FB4054B10B503A935
:1038E000044A029800F018F810BC5DF814FB0000C0
:1038F0006D3A00080C00002002E008C8121F08C141
:10390000002AFAD170477047002001E001C1121F60
:10391000002AFBD1704700002DE9FF4F89B09B467C
:103920000446002506E025280BD05A460B999047FF
:10393000641C6D1C20780028F5D10DB02846BDE828
:10394000F08F0027B8460122474900E0074314F8EA
:10395000013F203B02FA03F00842F7D120782E28DD
:1039600019D114F8010F47F004072A280ED06FF080
:103970002F022078A0F1300109290CD808EB88012A
:1039800002EB410100EB0108641CF2E70A98641C99
:1039900050F8048B0A9020780028CED0642808D0F4
:1039A000692806D075281ED05A460B9990476D1C81
:1039B00058E00A994FF00A0901C90A91002802DA71
:1039C00040422D2102E0390504D52B218DF820102D
:1039D000012103E0F90704D02021F7E78A4608AE69
:1039E0000DE00021FAE70A994FF00A0901C90A918E
:1039F000F7E74946FCF7B2FB303106F8011D002815
:103A0000F7D1ADEB060000F12009780701D44FF0A3
:103A10000108C84502DDA8EB090000E0002080464F
:103A2000002706E008A85A46C05D0B9990476D1C18
:103A30007F1C5745F6DB04E030205A460B9990472F
:103A40006D1CB8F10001A8F10108F5DC05E016F8DD
:103A5000010B5A460B9990476D1CB9F10001A9F171
:103A60000109F4DC641C65E709280100074A1268B3
:103A700002F0807242B100BF4FF060421268002A2B
:103A8000FAD04FF06043187070470000FCED00E082
:103A9000FCF7BEFDFFF7DCFDFFF74CFBFFF760FC1A
:103AA000FFF722FC2048FDF709FF042201211E48F0
:103AB000FDF750FFFCF796FB002210211B48FCF796
:103AC00093FD012204211A48FCF78EFD19A0FFF78F
:103AD00003FFFFF707F90220FFF736FA0720FFF789
:103AE0009DFA0720FFF7BCF90420FFF713FA012025
:103AF000FFF7D4F90020FFF7EFF90220FEF780FF6F
:103B00000120FFF7D1F80020FFF7A6FA1220FFF7F7
:103B1000C1FAFFF7F7F805E0FFF7F4F84FF4FA60A1
:103B2000FCF74FFCF8E7000074000020000402409E
:103B30000008024046572073746172740D0A000039
:103B40000000000001020304010203040607080943
:103B500001020304030406080C10182030000000C2
:103B6000803B0008000000201C000000F83800081E
:103B70009C3B00081C000020C40A00000839000813
:103B80000000000000000000000000000000000035
:0C3B900000000000000000000048E801F8
:0400000508000125C9
:00000001FF
