:020000040800F2
:10000000E8080020C1010008C9010008CB01000870
:10001000CD010008CF010008D10100080000000058
:10002000000000000000000000000000D3010008F4
:10003000D501000800000000D7010008512E00087B
:10004000DB010008DB010008DB010008DB01000820
:10005000DB010008DB010008DB010008DB01000810
:10006000DB010008DB010008DB010008DB01000800
:10007000DB010008DB010008DB010008DB010008F0
:10008000DB010008DB0100087D020008DB0100083D
:10009000DB010008DB010008DB010008DB010008D0
:1000A00000000000DB010008DB010008DB010008A4
:1000B000DB010008DB010008DB010008DB010008B0
:1000C000DB010008DB010008DB010008392E000815
:1000D000452E0008D5310008E1310008DB01000899
:1000E000DB010008DB010008DB010008DB01000880
:1000F000DB010008B5250008DB010008DB01000872
:10010000DB010008DB010008DB010008DB0100085F
:10011000DB010008DB010008DB0100080000000033
:10012000DB01000800F002F800F03AF80AA090E8BD
:10013000000C82448344AAF10107DA4501D100F0A2
:100140002FF8AFF2090EBAE80F0013F0010F18BF35
:10015000FB1A43F00103184798420000B842000020
:10016000103A24BF78C878C1FAD8520724BF30C8E3
:1001700030C144BF04680C607047000000230024B5
:1001800000250026103A28BF78C1FBD8520728BFA7
:1001900030C148BF0B6070471FB51FBD10B510BD03
:1001A00000F031F81146FFF7F7FF03F0D5FE00F03D
:1001B0004FF803B4FFF7F2FF03BC00F057F800005C
:1001C0000948804709480047FEE7FEE7FEE7FEE7EB
:1001D000FEE7FEE7FEE7FEE7FEE7FEE70448054927
:1001E000054A064B704700000D2F00082501000846
:1001F000E8020020E8080020E8040020E8040020CD
:10020000704770477047754600F02CF8AE46050001
:100210006946534620F00700854618B020B5FFF721
:10022000DDFFBDE820404FF000064FF000074FF023
:1002300000084FF0000B21F00701AC46ACE8C00904
:10024000ACE8C009ACE8C009ACE8C0098D4670470D
:1002500010B50446AFF300802046BDE81040FFF71C
:10026000A8BF0000004870478802002001491820FC
:10027000ABBEFEE72600020070470000014800F018
:1002800023B90000240000200146014801F02BBAE8
:1002900078000020014801F0FFB90000780000203C
:1002A00038B501208DF800009DF80000012801D02C
:1002B000012038BD0749084801F0AFFB040006D112
:1002C0004FF40061044801F0FFFC00B10124204616
:1002D00038BD000008020020780000201CB5DDE9D0
:1002E0000414CDE900140146034801F019FC00286C
:1002F00000D001201CBD0000780000201CB5DDE905
:100300000414CDE900140146034801F00BFD002858
:1003100000D001201CBD000078000020002200F069
:1003200001B8000030B50E4B054601209C7B022C25
:1003300015D8987B00241C54987B03EB8000456003
:100340009D7B03F10C002A54987B421C9A73303039
:1003500008703A2048702F208870CC70002030BD83
:100360007802002070470000F8B50024009490F84F
:1003700048202546012A12D0012280F848204A68E8
:100380001F23072A0DD207683E6C521E02EB820221
:1003900093409E430B6893401E433E6435E0022029
:1003A000F8BD0D2A0BD20668F76BD21F02EB820252
:1003B00093409F430B6893401F43F76325E0132A44
:1003C0000BD20668B76B0D3A02EB820293409F4353
:1003D0000B6893401F43B76317E00668192A0AD2D7
:1003E000776B133A02EB820293409F430B68934072
:1003F0001F43776309E0376B193A02EB820293409F
:100400009F430B6893401F4337630A6807230A2AF8
:100410000AD20668776902EB420293409F438B68D9
:1004200093401F43776125E0142A0BD207683E6989
:100430000A3A02EB420293409E438B6893401E436C
:100440003E6117E007681D2A0AD8FE68143A02EBDD
:10045000420293409E438B6893401E43FE6009E036
:10046000FE6D1E3A02EB420293409E438B6893401E
:100470001E43FE650A68102A01D0112A17D10E4AC0
:1004800013681B0213D4136843F400031360096854
:1004900010290CD109490A4A0968B1FBF2F101EBB4
:1004A0008101490000E0491E00910029FBD180F83C
:1004B00048502046F8BD0000042701400C000020F1
:1004C00040420F007047704770B5044600684168AD
:1004D00089062CD50168890729D5E16CC90603D4A2
:1004E000E16C41F40071E164816811F0405F17D163
:1004F000616AA9B9016B11F0F87F02D081684905E2
:100500000ED4416821F020014160E06C20F480703D
:10051000E064E06CC00403D4E06C40F00100E064EF
:100520002046FFF7CFFF21686FF0120008602068B7
:100530004168090633D50168490730D5E16CC90621
:1005400003D4E16C41F40051E164816811F4401F6F
:100550001ED1416C11F4401F02D08168490517D4A7
:100560004168490514D4816811F0405F10D1616A77
:1005700071B9416821F080014160E06C20F4805045
:10058000E064E06CC00503D4E06C40F00100E0647E
:100590002046FFF7E7FE21686FF00C000860206836
:1005A000416849060DD50068C0070AD0E06C40F4E8
:1005B0008030E064204600F0E3F821686FF001002D
:1005C00008602068416849010ED5016889060BD58D
:1005D000216D41F0020121656FF020050560204684
:1005E000FFF771FF2068056070BD0000F8B50400DA
:1005F0004FF0000503D0E06C002610B110E00120A0
:10060000F8BD2665594884F84860016841F0010149
:100610000160006800F001000090204600F0B2F890
:10062000E06CC00673D4E06C20F4885040F0020007
:10063000E0644F480168626821F440311143016071
:100640006169E0684FF40073084393FAA3F3E26B27
:10065000B3FA83F3216A9A4011430843022191FAC5
:10066000A1F1626AB1FA81F102FA01F10843616B0A
:10067000102902D0A36B19430843236819684FF46B
:100680008077C943490629D5A169D4F81CC008431D
:10069000A16841EA0C01D4F810C0BC450CD0BCF1F3
:1006A000010F09D04FF0000ED4F82CC041EA0E0122
:1006B000BCF1010F02D00AE0BE46F5E742B3E26C9E
:1006C00042F02002E264226D42F0010222655A6883
:1006D000DFF8A0C002EA0C020A435A60226891685F
:1006E000254B1940014391602169B94221680A6B89
:1006F0001DD122F0F8734FF0F877A26A97FAA7F7A6
:10070000B7FA87F7521EBA4013430B6312E029E091
:10071000FFE74FF4604C226B9CFAACFCBCFA8CFCFB
:10072000521E02FA0CF20A4342F40061CFE722F0B3
:10073000F8720A6321688968104A1140814207D122
:100740002665E06C20F0020040F00100E0640AE061
:10075000E06C20F0020040F01000E064206D40F0FA
:100760000100206501252846F8BD00002038024020
:1007700004270140FF16FCFC89F1FFC0FEFF80BF8B
:100780007047000000B50068104987B088421AD150
:100790000F48016841F4007101600068694600F487
:1007A000007005900120009003200190002002902D
:1007B000084800F01DF800221146122000F04CF904
:1007C000122000F03DF907B000BD000000240140F8
:1007D000203802400004024031B500F0E7F804463A
:1007E00000F0E4F80099001B8842F9D338BD0000FE
:1007F0002DE9F84FDFF880B100234FF0010C4FF0E6
:10080000030A4FF00F090BF1040EAEE00CFA03F6E9
:1008100014EA060270D04C68022C01D0122C11D1BF
:10082000DC0800EB84073C6A5D07ED0E09FA05F869
:1008300024EA0804D1F8108008FA05F848EA040808
:10084000C7F8208007685D0091F804800AFA05F473
:1008500008F00308A74308FA05F848EA0708C0F8B3
:1008600000804F68012F05D0022F03D0112F01D037
:10087000122F11D18768D1F80C80A74308FA05F828
:1008800048EA0708C0F808804768B7430E79C6F3FE
:1008900000169E403E434660C668A6438C68AC4046
:1008A0003443C4604C68E4005ED5344C256845F0A0
:1008B00001052560246823F0030504F00104009479
:1008C0002F4C2E19B4689D072F0F09FA07F5AC437A
:1008D0002C4DA84201D100251FE02B4DA84201D18B
:1008E00001251AE0294DA84201D1022515E0284D25
:1008F000A84202D1032510E036E0264DA84201D1DE
:1009000004250AE0244DA84201D1052505E0234D28
:10091000A84201D1062500E00725BD402543B5606A
:10092000DBF800405D464E689443F60300D514435F
:100930002C60DEF8004075464E689443B60300D53F
:1009400014432C600C4D08352C684E689443F60215
:1009500000D514432C60084D0C352C684E68944328
:10096000B60200D514432C605B1C0A681446DA40BA
:100970007FF44CAFBDE8F88F0004014020380240FE
:100980000000014000000240000402400008024054
:10099000000C024000100240001402400018024007
:1009A0000AB1816170470904FBE700000148006853
:1009B000704700001000002002480168491C0160D7
:1009C000704700001000002010B5032000F064F80C
:1009D000002000F004F800F013F8002010BD10B55E
:1009E000044600F001FA4FF47A71B0FBF1F001F027
:1009F0008AFB00222146501E00F02EF8002010BD78
:100A00000E4808B5016841F000410160006800F03F
:100A1000004000900948001F016841F00101016099
:100A2000006800F001000090032000F035F800227B
:100A3000BDE808401146501E00F00EB824380240B0
:100A400000F01F02012191404009800000F1E020E8
:100A5000C0F8001170470000F0B40E4B1B680C4644
:100A6000C3F30223C3F10705042D00D90425191D82
:100A7000072901D2002300E0DB1E012606FA05F15A
:100A8000491E214099409E40761E16403143F0BCDD
:100A900001F022BD0CED00E0064900F007020868F5
:100AA0004FF6FF03184040EA0220034A1043086053
:100AB000704700000CED00E00000FA0502480068F5
:100AC00000F4C05070470000007000402DE9F05F56
:100AD000DFF80CA304460E46DAF80000C14900F026
:100AE00001070122DFF8FC92BE48343153044FF075
:100AF000007B4FF0020E41F2883509F10809B74238
:100B000070D2012E05D1DAF800C04CF0040CCAF8FE
:100B100000C0DAF800C02CF0010C4CEA060CCAF850
:100B200000C0DAF8007007F00107B74275D12678E7
:100B3000B60709D5D9F80070D4F808C027F0F00737
:100B400047EA0C07C9F800702678F60758D067689E
:100B5000022F05D0032F10D0012F1CD04FF40073AB
:100B600093FAA3F6B6FA86F646F0200676093AD04E
:100B7000D0F8000093FAA3F11AE09BFAABF6B6FAAC
:100B800086F646F02006760901D0006800E0086885
:100B90009BFAABF10CE09EFAAEF6B6FA86F646F09A
:100BA0002006760901D0006800E008689EFAAEF1E0
:100BB000B1FA81F101F01F018A4010422DD0D9F81D
:100BC00000004E4620F003003843C9F80000FFF74C
:100BD000EDFE0746606802280DD0032817D00128D3
:100BE00021D02CE030E00868C4E700BFFFF7DEFE4C
:100BF000C01BA8427ED83068C0F381000228F5D11E
:100C0000D1E000BFFFF7D2FEC01BA84272D8306807
:100C1000C0F381000328F5D1C5E0C2E0FFF7C6FEAE
:100C2000C01BA84266D83068C0F381000128F5D106
:100C3000B9E000BFFFF7BAFEC01BA8425AD830681F
:100C400010F00C0FF6D1AEE02778BF0709D5D9F820
:100C500000C0D4F808802CF0F00C4CEA080CC9F85D
:100C600000C02778FF0760D06768022F05D0032FE8
:100C700011D0012F1ED04FF4007393FAA3FCBCFADD
:100C80008CFC4CF0200C5FEA5C1C3ED0D0F80000DD
:100C900093FAA3F11CE09BFAABFCBCFA8CFC4CF081
:100CA000200C5FEA5C1C01D0006800E008689BFA39
:100CB000ABF10DE09EFAAEFCBCFA8CFC4CF0200CC3
:100CC0005FEA5C1C01D0006800E008689EFAAEF1A3
:100CD000B1FA81F101F01F018A40104261D0D9F8C8
:100CE000001021F003013943C9F80010FFF75EFE40
:100CF000074600E039E0606802280FD003281BD0C7
:100D0000A84601284D4624D032E00868C0E700BF5D
:100D1000FFF74CFEC11B414502D926E0A8464D46CF
:100D20002868C0F381000228F2D125E0FFF73EFEDB
:100D3000C11B414502D918E0A8464D462868C0F3BA
:100D400081000328F2D117E0FFF730FEC11B4145B7
:100D50000BD82868C0F381000128F5D10CE000BF52
:100D6000FFF724FEC11B414502D90320BDE8F09FD7
:100D7000286810F00C0FF3D1012E05D1DAF800101D
:100D800041F00401CAF80010DAF8001021F0010166
:100D90003143CAF80010DAF8000000F00100B04258
:100DA00001D00120E2E72078400707D5D9F80010EC
:100DB000E26821F4E0611143C9F8001020780007CF
:100DC00008D5D9F80010226921F4605141EAC20126
:100DD000C9F800100020FFF702FE0020C6E700005F
:100DE000003C02400038024000B500F043F80849DA
:100DF0000968F02292FAA2F201F0F001B2FA82F24E
:100E0000D140044A515CC8400349086000BD00005D
:100E100008380240164300080C00002000B5FFF718
:100E2000E3FF074909684FF4E06292FAA2F201F485
:100E3000E061B2FA82F2D140024A515CC84000BD82
:100E4000083802401643000800B5FFF7CDFF0749F8
:100E500009684FF4605292FAA2F201F46051B2FABA
:100E600082F2D140024A515CC84000BD08380240BD
:100E7000164300081F4A116801F00C00042813D023
:100E8000082813D00C2813D0101F006800F460410C
:100E90004FF4604090FAA0F0B0FA80F0C1404FF4F7
:100EA0000040491C884070471348704713487047FA
:100EB0004FF4701393FAA3F301F47010B3FA83F3B1
:100EC000D8400F4B01F440011268185C4FF4400306
:100ED00093FAA3F3B3FA83F3D940094B143B595C5B
:100EE000D20301D5054A00E0034A5043B0FBF1F0BC
:100EF00070470000083802400024F40000366E01FC
:100F0000264300082DE9F84F04460078DFF8E4B3E3
:100F1000F94FFA4EC0074FF0010528D0DBF800105A
:100F20005846C1F381014FF40038022907D0016807
:100F3000C1F3810103291BD10068C00318D598FAB9
:100F4000A8F0B0FA80F040F02000400901D03868E5
:100F500000E0306898FAA8F1B1FA81F101F01F01C0
:100F600005FA01F1084202D06068002874D07FE0E1
:100F7000386820F480303860386820F48020386089
:100F8000FFF714FD814605E0FFF710FDA0EB090017
:100F900064287DD898FAA8F0B0FA80F040F02000DC
:100FA000400901D0386800E0306898FAA8F1B1FA39
:100FB00081F101F01F0105FA01F10842E4D16068F6
:100FC00001280AD008B1052811D0386820F48030F3
:100FD0003860386820F4802002E0386840F48030BF
:100FE0003860606820B3FFF7E1FC81460AE03868AA
:100FF00040F480203860F0E7FFF7D8FCA0EB090050
:101000006428C6D898FAA8F0B0FA80F040F0200022
:10101000400901D0386800E0306898FAA8F1B1FAC8
:1010200081F101F01F0105FA01F10842E4D01FE04F
:10103000FFF7BCFC814605E0FFF7B8FCA0EB090018
:101040006428A6D898FAA8F0B0FA80F040F0200002
:10105000400902D0386801E0B1E0306898FAA8F1A0
:10106000B1FA81F101F01F0105FA01F10842E3D163
:101070002078DFF88C8280074FF0000A4FF00209D9
:1010800060D5DBF800105846C1F38101012900E06A
:1010900076E107D00168C1F3810103291BD1006803
:1010A000C00318D499FAA9F0B0FA80F040F02000FB
:1010B000400901D0386800E0306899FAA9F1B1FA26
:1010C00081F101F01F0105FA01F108422BD0E0681F
:1010D000012874D127E0E068A8B395FAA5F0B0FA2A
:1010E00080F048F82050FFF761FC009006E000BF58
:1010F000FFF75CFC0099401A6428A2D899FAA9F07D
:10110000B0FA80F040F02000400901D0386800E0DB
:10111000306899FAA9F1B1FA81F101F01F0105FADD
:1011200001F10842E4D07348001F01684FF4F853FE
:1011300093FAA3F32269B3FA83F321F4F8519A40A6
:101140001143016025E0FFE795FAA5F1B1FA81F1BD
:1011500048F821A0FFF72AFC009005E0FFF726FCE5
:101160000099401A6428C8D899FAA9F0B0FA80F01A
:1011700040F02000400901D0386800E0306899FA5A
:10118000A9F1B1FA81F101F01F0105FA01F108425C
:10119000E4D12078C0066ED5DBF8000010F00C0F0B
:1011A0000ED0A1694FF48070E9B390FAA0F0B0FAC4
:1011B00080F048F82050FFF7F9FB009062E08EE0E5
:1011C0004FF4007191FAA1F0B0FA80F040F02000E5
:1011D000400901D0386800E0306891FAA1F1B1FA15
:1011E00081F101F01F0105FA01F1084202D0A06966
:1011F000002874D03F48216A001F006800F4604056
:1012000081421CD9084601F077F9002867D1394896
:10121000001F0168226A21F46041114301600168E6
:1012200021F07F4100E05BE04FF07F4393FAA3F3AE
:10123000E269B3FA83F39A401143016018E02D4844
:10124000001F026822F460420A43026001684FF006
:101250007F4393FAA3F3E269B3FA83F321F07F416A
:101260009A4011430160206A01F046F90028CDD16F
:101270000020FFF7B4FB62E0FFF798FB0099401AEB
:1012800064287DD84FF4007191FAA1F0B0FA80F093
:1012900040F02000400901D0386800E0306891FA41
:1012A000A1F1B1FA81F101F01F0105FA01F1084243
:1012B000E2D01048001F0168226A21F46041114306
:1012C000016001684FF07F4393FAA3F3E269B3FA38
:1012D00083F321F07F419A40114301602FE0B1E197
:1012E00090FAA0F0B0FA80F048F820A0FFF75EFB7B
:1012F00000900DE0083802400038024034380240C7
:1013000000004742FFF752FB0099401A6428B8D802
:101310004FF4007191FAA1F0B0FA80F040F0200093
:10132000400901D0386800E0306891FAA1F1B1FAC3
:1013300081F101F01F0105FA01F10842E2D12078A4
:10134000000755D5606950B395FAA5F0B0FA80F062
:1013500008EB8000C0F88056FFF728FB009005E0FE
:10136000FFF724FB0099401A64288AD899FAA9F05B
:10137000B0FA80F040F04000B5EB501F03D100E020
:1013800090E0386800E0306899FAA9F1B1FA81F18B
:1013900001F01F0105FA01F21042E1D028E095FAB0
:1013A000A5F1B1FA81F108EB8101C1F880A6FFF740
:1013B000FDFA009006E000BFFFF7F8FA0099401A26
:1013C00064286FD899FAA9F0B0FA80F040F0400094
:1013D000B5EB501F01D1386800E0306899FAA9F1E7
:1013E000B1FA81F101F01F0105FA01F21042E3D1D7
:1013F0002078400779D5A548016841F08051016007
:10140000006800F080500090A148016841F48071AC
:101410000160FFF7CBFA814606E000BFFFF7C6FA8E
:10142000A0EB090064283DD899480068C005F5D5AF
:10143000306820F480703060306820F48060306064
:10144000FFF7B4FA4FF40079009007E0FFF7AEFA27
:101450000099411A41F28830814223D899FAA9F0C3
:10146000B0FA80F040F04000B5EB501F01D1386871
:1014700000E0306899FAA9F1B1FA81F101F01F0199
:1014800005FA01F10842E1D1A06801280BD008B1AA
:10149000052812D0306820F480703060306820F465
:1014A000806003E08CE0306840F480703060A068B9
:1014B00040B3FFF77BFA00900CE0306840F48060A6
:1014C0003060F0E7FFF772FA0099411A41F2883074
:1014D000814275D899FAA9F0B0FA80F040F0400046
:1014E000B5EB501F02D1386801E02DE0306899FA61
:1014F000A9F1B1FA81F101F01F0105FA01F21042E0
:10150000E0D021E0FFF752FA009007E0FFF74EFA33
:101510000099411A41F28830814251D899FAA9F0D4
:10152000B0FA80F040F04000B5EB501F01D13868B0
:1015300000E0306899FAA9F1B1FA81F101F01F01D8
:1015400005FA01F21042E1D1606AC0B3DBF8001085
:10155000C1F38101032975D002284FF080714FF04B
:10156000007950460BD091FAA1F1B1FA81F148F817
:101570002100FFF71BFAB84604464F466CE04FF0D7
:10158000807191FAA1F1B1FA81F18A00414950507C
:10159000FFF70CFABA4680464F4605E0FFF706FA19
:1015A000A0EB0800642854D897FAA7F0B0FA80F0AE
:1015B00040F02000400904D0DAF8000002E061E0C9
:1015C00047E0306897FAA7F1B1FA81F101F01F0105
:1015D00005FA01F10842E1D1D4E90A10226BDBF8E7
:1015E0000030014323F47D031A431143CBF800106C
:1015F0004FF0807090FAA0F0B0FA80F0810025489A
:101600000D50FFF7D3F9044605E000BFFFF7CEF910
:10161000001B64281DD897FAA7F0B0FA80F040F0BC
:101620002000400902D0DAF8000000E0306897FAA4
:10163000A7F1B1FA81F101F01F0105FA01F10842A9
:10164000E4D01FE020E000BFFFF7B0F9001B6428E2
:1016500002D90320BDE8F88F97FAA7F0B0FA80F01E
:1016600040F02000400902D0D8F8000000E03068C7
:1016700097FAA7F1B1FA81F101F01F0105FA01F122
:101680000842E1D10020E5E70120E3E724380240E9
:10169000007000400000474210B50446808C86B0C0
:1016A000000400900D20019000214020CDE90201AE
:1016B000000104906946206800F09BFF0D21204640
:1016C00000F0ACFF68B9002000F06CFFC0F34320CD
:1016D000042804D0FF2804D0012006B010BD00204B
:1016E000FBE70220F9E72DE9F04790F8202081F888
:1016F0005620828CA1F85420826A0027120E93098A
:101700000B70C2F383034B7002F003028A70826A8B
:10171000120CCA70028D120A0A7190F828204A71C0
:10172000C26A4FF6FF7A120E0AEA0212CA80C26A31
:10173000CB88C2F3074243EA1213CB8002F00F02B8
:101740000A72828DC2F30723DA094A72C3F3801248
:101750008A72C3F34012CA72C3F300120A730022E2
:101760004A73046A4FF00109002C7DD0012CFCD093
:10177000022C7AD02927C3F380144C769B065B0E8B
:1017800001F81A3F10F8303F0C7844EAD31401F8FE
:10179000014B03F07F0301F8013B50F8043F1B0E9F
:1017A000DC090C70C3F341144C70C3F382048C70D9
:1017B0009B071B0FCB7008C8CC78C3F3074344EAE0
:1017C0009314CC70C3F340140C714A7103F00102FE
:1017D0008A7130F8042CC2F30722D309CB71C2F30B
:1017E00080130B72C2F340134B72C2F300138B725F
:1017F000C2F38103CB7202F003020A7310F8042CC7
:1018000052084A734B4681F80E9050F8082B120E7E
:101810000A7450F8082C120C0AEA02224A8230F8A4
:10182000082CC2F307244A8A22434A8210F8082C63
:10183000120641F8142F50F8042C0C68120E44EADA
:1018400002420A6050F8042C0C68C2F3074244EAD2
:1018500002220A6030F8042C0C68C2F307221443F9
:1018600010C110F8042C01E034E076E001F8012BFF
:101870000268120E01F8032B0268120C12060A60AD
:1018800002880C68C2F3072244EA02420A60027826
:101890000C6844EA02220A6042680C6844EA126456
:1018A00010C142680C78C2F3074244EA121401F8EE
:1018B000024B1207120D0A808288C2F307240A889D
:1018C000224321F8022B0079400808704B703846FB
:1018D000BDE8F0879B071B0D0B6190F82C300C695D
:1018E00044EA83030B61036B0C691B0E44EA9314F7
:1018F0000C61C3F3C2040C7503F007034B75036B53
:10190000C3F307435C098C75C3F38204CC759B0752
:101910005B0F0B76038E0C7EC3F3072344EAD314CC
:101920000C760C690E7EB61C09FA06F5641CA4FB45
:1019300005684FEAE57C02FB058504FB0C5591F830
:1019400008C009FA0CF4A6FB04C80C6505FB048466
:1019500006FB0244C1E912C40DE790F82C309B0647
:101960009B0A0B61036B0C691B0E44EA03230B619A
:10197000036B0C69C3F307431C430C61038E0C69B2
:10198000C3F30723641C42F10005ED0445EA543516
:10199000E404C1E912454FF400740C65EBE610B5A0
:1019A00001680446486BC0050AD54FF4807088630F
:1019B0000120A0640020E064204600F09FFA25E0AA
:1019C000486B800702D5022088631BE0486B000744
:1019D00003D508208863042014E0486B800603D5F3
:1019E0002020886306200DE0486BC00603D5102038
:1019F0008863052006E0486B800507D54FF400702A
:101A000088630720E064204600F079FA2068C16B03
:101A10004CF23A329143C16310BD70B586B00024D8
:101A20000E4605468DF80C4000F046F876200094EE
:101A3000CDE90140234622462146286800F0C0FD3A
:101A4000284601F063F88DF80C009DF80C0038B9B9
:101A5000284600F04EFF8DF80C009DF80C0018B1E0
:101A60009DF80C0006B070BD31462846FFF73BFEDE
:101A70008DF80C009DF80C00A0B9B6F8540069462A
:101A800000040090072001904020CDE902040001ED
:101A90000490286800F0ADFD0721284600F0BEFD47
:101AA0008DF80C0005F1100007C88DE8070095E8D7
:101AB0000F0000F085FDD3E7F0B50068144987B04A
:101AC000884223D11348016841F400610160006835
:101AD000022400F4006005904FF4F850002503261E
:101AE0000C278DE8F10069460B48FEF781FE0420C3
:101AF0008DE8F10069460948FEF77AFE002211469A
:101B00002D20FEF7A9FF2D20FEF79AFF07B0F0BDAC
:101B1000002C01402038024000080240000C024026
:101B20002DE9F04F8BB004460D46DDE914782168AD
:101B300000201646C862216A022903D10F02560A04
:101B400046EAC3561021CDE90071402183460801C1
:101B50000291CDE903B06946206800F04AFD1021EA
:101B6000204600F05BFD00286DD14FF0FF3A08FBE6
:101B700007F0CDE905A007A990204FF0020981E800
:101B8000010A01200A9005A9206800F0F1FCB8F1D3
:101B9000010F01D9122000E01120CDE90060694653
:101BA000206800F026FDB8F1010F1AD91221204655
:101BB00000F034FD060046D140F22A3B2068416B1C
:101BC00011EA0B0F28D1406B0004F7D500272068DD
:101BD00000F00CFD45F827007F1C082FF7D32035B7
:101BE000ECE71121204600F019FD06002BD140F250
:101BF0002A6B2068416B11EA0B0F0DD1406B00047A
:101C0000F7D50027206800F0F1FC45F827007F1C7D
:101C1000082FF7D32035ECE7406BC0050CD5B8F1A1
:101C2000010F09D9206A18B1012801D0022803D177
:101C3000204600F033F806462168486B000705D5BA
:101C40000820886304200BB0BDE8F08F486B800744
:101C500003D54846C1F83890F5E7486B800603D5B0
:101C6000202088630620EEE7486B800504D54FF4FA
:101C7000007088630720E6E7574603E000F0B6FCF3
:101C800001C57F1E2068416B890201D5002FF5D167
:101C9000216840F2FF5088633046D4E710B586B023
:101CA000044600200C21CDE900014021CDE90210BD
:101CB000080104906946206800F09BFC0C21204636
:101CC00000F0ACFC06B010BDFEB50546006A0E463D
:101CD000032810D030B1012804D0022802D02924D2
:101CE0002046FEBDB6F5805F05D0B6F5006F04D086
:101CF0003EB12624F4E72724F2E7284600F0F9FF56
:101D000002E0284600F0BCFF0400E9D1291DD5E916
:101D100005700EC90096CDE90170286800F050FCEE
:101D2000DEE700002DE9F04F8DB0044600260D4699
:101D30008DF80060DDE91698216817463046CE62BE
:101D4000216A022904D1570A4FF4007947EAC357A0
:101D50001021CDE90191402183460801CDE904B06D
:101D6000039101A9206800F044FC1021204600F0F6
:101D700055FC00287BD1B8F1010F01D9192000E0F2
:101D80001820CDE9017001A9206800F032FCB8F1FB
:101D9000010F01D9192100E01821204600F03EFC76
:101DA000002864D1411E069108FB09FA9020CDE974
:101DB00007A00120CDE90AB0CDF824B006A920681B
:101DC00000F0D6FBB8F1010F52D940F21A3B20685F
:101DD000416B11EA0B0F52D1406B4004F7D5AAEBCF
:101DE0000600202811D281074FEA900000D0401C45
:101DF0008146002706E02946206800F00AFC2D1DD8
:101E0000361D7F1C4F45E2D2F5E7002705EB870121
:101E1000206800F0FEFB7F1C082FF7D3203520360A
:101E2000D5E7486B400425D5AAEB0600202811D23F
:101E300081074FEA900000D0401C8146002706E051
:101E40002946206800F0E5FB2D1D361D7F1C4F45FF
:101E500010D2F5E75FF0000705EB8701206800F07E
:101E6000D8FB7F1C082FF7D32035203602E01DE079
:101E700040F21A6B2168486B10EA0B0FD1D0206832
:101E8000406BC0050BD5B8F1010F08D9206A18B115
:101E9000012801D0022802D12046FFF7FFFE216869
:101EA000486B000705D50820886304200DB0BDE805
:101EB000F08F486B800702D502208863F6E7486BF5
:101EC000C00603D5102088630520EFE7486B800526
:101ED00004D54FF4007088630720E7E740F2FF5015
:101EE00088636946204600F073FD0028DED19DF826
:101EF00000100729F5D00629F3D0D7E770477047BF
:101F0000704708B501684A68D243520609D48A6806
:101F1000D243D20705D18A68D243520601D5816CDB
:101F200008E04A68D243120608D48A68D24392076E
:101F300004D4C16C01B05DF804EB08474A68D24391
:101F400092063FD48A68D243D20606D4426D42F04C
:101F5000020242656FF010028A6001688A68D2430B
:101F6000920609D4426D42F0010242658A680092ED
:101F70000A6822F040020A6001688A68D243520669
:101F80000AD490F85120122A06D0426D42F0040281
:101F90004265CA688A6800928A68D243D20505D42D
:101FA000426D42F0080242658A680092426D002A42
:101FB00008D04A6822F0E0024A60012180F85110FE
:101FC000FFF79EFF08BD70B5040004D094F85100DF
:101FD000002510B106E0012070BD84F85050204665
:101FE00000F034F8022084F851002068016821F0E4
:101FF00040010160D4E901010843D4E9031211430F
:10200000084361690843218B01F400710843E169C9
:102010000843216A0843A16A084321680860A0694F
:10202000042101EA1040616A084321684860216880
:10203000E06A08612068C16921F40061C1616565D9
:10204000012084F85100002070BD000030B5006808
:10205000214D002102220323052487B0A84219D173
:102060001E48056845F480550560006802AD00F41F
:102070008050059085E81A00F020CDE900026946FD
:102080001748FEF7B5FB002211462320FEF7E4FCBB
:1020900023201DE0134DA8421CD11048001D0568E7
:1020A00045F480450560006802AD00F4804005906D
:1020B00085E81A004FF47040CDE9000269460A48ED
:1020C000FEF796FB002211462420FEF7C5FC2420D3
:1020D000FEF7B6FC07B030BD0030014020380240AA
:1020E0000000024000380040000402404FF0E021B0
:1020F0000428086903D020F004000861704740F00C
:102100000400FAE7704710B5401EB0F1807F01D39C
:10211000012010BD4FF0E02460610F21601700F036
:10212000DBF90020A06107202061002010BD10B560
:10213000FFF7E8FF10BD704738B504460068016836
:10214000C26811F0010F02F4807204D01AB1E16B81
:1021500041F00101E1630168C1F34002416901F00E
:10216000010122B119B1E26B42F00402E26302689C
:10217000C2F3800222B119B1E26B42F00202E263C3
:102180000268C2F3C00222B119B1E16B41F008014B
:10219000E1630168C068C1F3401100F0200019B18B
:1021A00010B1204600F0DAFE20680168C068C1F373
:1021B000C01100F0800019B110B1204600F0D6FF28
:1021C00021680868CA68C0F3801002F04002012547
:1021D00070B16AB1CA68204622F04002CA6094F821
:1021E0003910322911D080F8395000BF00F087F83B
:1021F000E06B002808D0206801684068009084F8EF
:1022000039502046FFF797FF38BD222180F839105A
:10221000ECE770B5040004D094F83900002510B143
:1022200006E0012070BD84F83850204600F020F808
:10223000022084F839002068C16821F40051C1608F
:10224000204600F0DFFE2068016921F49041016121
:102250002068416921F02A0141612068C16841F488
:102260000051C160E563012084F83900002070BD91
:1022700070B51E4E016802220123032407251C4865
:1022800086B0B14215D11B490E6846F480460E60F7
:10229000096801F48041059161028DE83E006946BC
:1022A000FEF7A6FA002211462520FEF7D5FB2520D1
:1022B00018E0114EB14217D10E49091D0E6846F4BF
:1022C00000360E60096801F4003105910C218DE89B
:1022D0003E006946FEF78CFA002211462620FEF7E2
:1022E000BBFB2620FEF7ACFB06B070BD00380140FA
:1022F0000000024020380240004400407047704710
:10230000FEB5124810490024C0E900148460C4607E
:10231000046144618461C46101250462C0E9094526
:102320001026C462C0E90D64C463FEF75FF9084873
:10233000016821F0006101600096CDE90154694611
:102340000248FEF711F8FEBD0024014024000020E1
:10235000007C004000B5ADF25C4D0F490F48FDF721
:10236000DDFF0D490122491E08700DA18BA801F067
:1023700031FA00280DD113220AA1684601F058FA5B
:1023800010B9684601F010FA012209A1002001F0FD
:1023900021FA0DF25C4D00BD01000020DC43000875
:1023A0005300000031737466696C652E7478740094
:1023B0000000000070B52A4886B0016841F00401B1
:1023C0000160016801F004010591016841F001011B
:1023D0000160016801F001010591016841F002010D
:1023E0000160016801F002010591016841F00801F6
:1023F00001600068012500F0080005900D200090A4
:102400000024CDE90154174E694630460394FEF787
:10241000EFF949F602100090CDE9015469461248DF
:102420000394FEF7E5F93020CDE900046946304613
:102430000294FEF7DDF940F692400090CDE9015498
:102440000A4D694628460394FEF7D2F96020CDE98B
:102450000004694628460294FEF7CAF906B070BD2A
:102460001C38024000080240000002400004024004
:102470000B480A494FF4802201604FF48271416099
:1024800000218160C1600161C0E90512C161016282
:10249000416281620A21C162FFF795BD00300140AF
:1024A000D80000200B480A494FF4802201604FF405
:1024B0008271416000218160C1600161C0E9051243
:1024C000C1610162416281620A21C162FFF77BBD85
:1024D00000380040300100200907090E002806DA04
:1024E00000F00F0000F1E02080F8141D704700F1AB
:1024F000E02080F800147047F8B507461A48002617
:1025000000681A4D10F0F00F20D1174C1C342068D1
:10251000C00002D5FEF7D2FA0DE0206840F08050EE
:102520002060206800F080500090FEF7C7FA216814
:1025300021F080512160B0F5C05F07D1B7F5404F61
:1025400004D12868012640F004002860286820F0A3
:10255000010030432860286800F00100B04201D03B
:102560000120F8BD0020F8BD08380240003C0240C0
:102570000A6842624A688262D1E902231A43D1E9B9
:1025800004310B43C16A1A4321F0F7011143C162C0
:10259000002070470069C0B27047006800F0030077
:1025A0007047000008B5024908440090006808BD63
:1025B000142C01400148FFF7F2B900007800002018
:1025C00070B50DF1100C11439CE8700023431943C2
:1025D00029434268314347F6FF639A430A43426006
:1025E000002070BD0321016000207047D0F88000FA
:1025F00070470A688260D1E901231A43D1E90331A7
:102600000B43C1681A436FF30B011143C1600020F3
:1026100070470968C0F880100020704770B5054603
:1026200000680E460024416B11F0450FFBD0416B52
:10263000490703D503210422826304E0416BC907E3
:1026400003D001218163084670BDFFF7A3FFB042AC
:102650002BD1296840F2FF5088630020FFF7A2FFCA
:10266000284908424BD0002801DA1C2070BD4100E7
:1026700001D5092070BD810001D50A2070BDC100BF
:1026800001D50B2070BD010101D50C2070BD4101A9
:1026900001D50D2070BDC10101D50E2070BD010214
:1026A00001D50F2070BD410201D5102070BD8102FF
:1026B00001D5112070BDC10201D5122070BD0103EA
:1026C00001D5132070BD410301D5142070BD8103D5
:1026D00001D5152070BDC10301D5162070BD0104C0
:1026E00001D5172070BD410401D5182070BD8104AB
:1026F00001D5192070BD000701D51A2070BD2046F4
:1027000070BD000008E0FFFD0146002009684A6B2B
:1027100012F0450FFBD04A6B520702D5032004226A
:1027200007E04A6BD20702D001208863704740F26D
:10273000FF528A6370472DE9F04104460068154650
:102740000E460027416B11F0450FFBD0416B490746
:1027500003D503210422826304E0416BC90704D03E
:10276000012181630846BDE8F081FFF713FFB04205
:1027700012D1216840F2FF5088630020FFF712FF5A
:1027800010F4604F03D0810404D51320EBE7000C54
:10279000288007E0410401D51020E4E7000401D5BA
:1027A0000F20E0E73846DEE70146292009684FF4AC
:1027B00080324B6B13F0450F07D14B6BA2F1010236
:1027C00013F0450F01D1002AF7D14B6BC3F38003FF
:1027D00002B113B10320042204E04A6B520602D571
:1027E000002040228A6370472DE9F04F91B0002508
:1027F0000F46069508261021CDE900614021079576
:102800000446CDE9021508010490A84669462068EF
:10281000FFF7EFFE10212046FFF700FF002844D10C
:10282000A08C694600040090372001902068FFF7D3
:10283000E0FE37212046FFF7F1FE002835D1401E8B
:10284000CDE9080630204FF00209CDE90A09012040
:10285000CDE90C80B246464608A92068FFF788FEFD
:102860003320CDE9006069462068FFF7C2FE3321BE
:102870002046FFF7D3FE060017D10DF1180B40F2EA
:102880002A682068416B11EA080F08D1416B890260
:10289000F7D5FFF7ABFE4BF825006D1CF1E7416B58
:1028A000090705D5C0F838A0042011B0BDE8F08FA5
:1028B000416B890703D5C0F838904846F5E7416B6E
:1028C000890603D5202181630620EEE7416B890547
:1028D00004D54FF4007181630720E6E740F2FF5111
:1028E0008163069800BA7860079800BA386030466D
:1028F000DBE770B586B004460120ADF81400002572
:102900002068FFF74AFE58B3206A04285DD00020F3
:102910000221C0268DE843000390480204906946D6
:102920002068FFF766FE2046FFF7EEFE050018D18F
:10293000FFF738FEA0630420FFF734FEE0630820B1
:10294000FFF730FE20640C20FFF72CFE6064206A45
:1029500048B1012807D0062805D0022803D011E08D
:10296000252006B070BD03200190402002906946EA
:102970002068FFF73EFE05AA03212046FFF7DBFE95
:102980000500EED1206A04281FD0BDF81400606253
:10299000000400900920CDE9010669462068FFF790
:1029A00028FE2046FFF7B0FE0500DAD1FFF7FAFD5A
:1029B000A0620420FFF7F6FDE0620820FFF7F2FDB9
:1029C00020630C20FFF7EEFD60632846C9E7000096
:1029D00070B586B0044600260D460096A18C090409
:1029E00001910D2102914021CDE9031608010590C6
:1029F00001A92068FFF7FDFD2068416B11F0450F2C
:102A0000FBD0416B490703D503210422826304E014
:102A1000416BC90704D001218163084606B070BD2F
:102A2000FFF7B8FD0D2838D1216840F2FF508863C8
:102A30000020FFF7B7FD0090C0F343202870324913
:102A4000009808425DD00098002801DA1C20E5E7D4
:102A5000400001D50920E1E70098800001D50A2057
:102A6000DCE70098C00001D50B20D7E700980001F3
:102A700001D50C20D2E70098400101D50D20CDE70B
:102A80000098C00101D50E20C8E70098000201D5CA
:102A90000F20C3E70098400201D51020BEE7009840
:102AA000800201D51120B9E70098C00201D512209B
:102AB000B4E70098000301D51320AFE70098400366
:102AC00001D51420AAE70098800301D51520A5E7B9
:102AD0000098C00301D51620A0E70098000401D596
:102AE00017209BE70098400401D5182096E700982E
:102AF000800401D5192091E70098000701D51A201C
:102B00008CE730468AE7000008E0FFFD2DE9F04F32
:102B100087B0002504468DF80050574EA846A946B8
:102B200046F8A05F0068FFF75DFD0120FDF754FE49
:102B300001273760BE02CDE9045601950295039541
:102B400001A92068FFF755FD23680021B0015A6BE9
:102B5000C2F3C01204E05A6B401EC2F3C0120CD084
:102B6000002AF8D048B140F2FF5098638DF8001069
:102B70009DF8000000287AD101E00321F6E74FF428
:102B8000D570019008204FF0400ACDE9020A01A952
:102B90002068FFF72EFD2046FFF706FE8DF80000A7
:102BA0009DF8000010B94FF0804927623727CDE922
:102BB000015701A92068FFF71CFD37212046FFF7C8
:102BC0002DFD8DF800009DF80000D8B34FE003976D
:102BD000CDE9015BCDE9045601A92068FFF709FDA5
:102BE00037212046FFF71AFD8DF800009DF8000000
:102BF00048BB2249CDE9045649EA01000190292049
:102C0000CDE9020701A92068FFF7F3FC2068002145
:102C1000426B12F0450FFBD0426B520702D50321E5
:102C2000042201E040F2FF5282638DF800109DF80B
:102C3000000040B90020FFF7B5FCC10F08F1010802
:102C400005D008E000E012E0BB465746BFE74FF66C
:102C5000FF718845BBD34FF6FF72904503D31B200D
:102C60008DF8000003E0400001D5022020629DF8AD
:102C7000000007B0BDE8F08F008025420000108002
:102C800030B589B000250446019528460295FFF726
:102C900089FC800102D50E2009B030BD01A9204673
:102CA000FFF7A2FD0028F7D10298C0031FD5A08C22
:102CB00003A900040390372004904020CDE90505C6
:102CC000000107902068FFF794FC37212046FFF7AA
:102CD000A5FC0028E0D10620CDE9035003A9206817
:102CE000FFF787FC06212046FFF798FCD4E7252054
:102CF000D2E730B589B000250446019528460295F3
:102D0000FFF750FC800102D50E2009B030BD01A9AB
:102D10002046FFF769FD0028F7D10298400320D52F
:102D2000A08C03A900040390372004904020CDE933
:102D30000505000107902068FFF75BFC372120465E
:102D4000FFF76CFC0028E0D10220039006200490DD
:102D500003A92068FFF74DFC06212046FFF75EFC23
:102D6000D3E72520D1E7000010B5064C01202070E4
:102D7000FDF796FA18B9207820F00100207020782D
:102D800010BD00002000002010B51446114A96B076
:102D900001201278D20702D0032016B010BDA1B1D5
:102DA000012907D04FF4007202290DD003290ED05B
:102DB0000420F2E76846FDF767FADDE91201400AF0
:102DC00040EAC150206000E022800020E5E7226058
:102DD000E3E70000200000201CB508464FF4007116
:102DE000CDE90013002452022346FDF777FA00B123
:102DF000012420461CBD000010B5064C01202070A7
:102E0000FDF748FA18B9207820F0010020702078EA
:102E100010BD0000200000201CB508464FF40071D2
:102E2000CDE90013002452022346FDF767FA00B1F2
:102E3000012420461CBD00000148FFF762B80000D5
:102E4000D80000200148FFF75CB8000030010020E6
:102E500010B5FDF7B1FDFFF76AF9094C0948216883
:102E6000B1F5FA7F01D9002200E001220221FDF72D
:102E700097FD2068B0F57A7F01D10020206010BD59
:102E8000080000200000024030B51E4893B00168E1
:102E900041F080510160006800F0805012901A48A3
:102EA000016821F4C05141F4006101600220002456
:102EB0000090CDE9090480040B9000010C900125DD
:102EC0001021CDE903516846FEF71CF80320CDE937
:102ED0000E040D95109401210DA81194FDF7F6FD37
:102EE000FDF782FF4FF47A71B0FBF1F0FFF70BF9B9
:102EF0000420FFF7FBF800221146501EFDF7ACFD41
:102F000013B030BD24380240007000400F48016803
:102F100041F4807101600D4908310A680C4B1A4078
:102F20000A6002680B4B1A400260026822F4802299
:102F30000260086820F47D0008600020091D086018
:102F400005494FF0006008607047000000380240FB
:102F50000CC0FF88FEFFFEEE08ED00E010B590F813
:102F60003910222903D0322901D0022010BD8168F6
:102F7000B1F5805F11D00169002901681FD049684F
:102F800001F07F03816A4A1C82620B70C18D491E69
:102F90000904090CC18518D030E00269816A002A51
:102FA0000268526805D0D2B20A80816A491C8162E7
:102FB000ECE7C2F308020A80816A891CF7E74A68D5
:102FC000816A4B1C83620A70E0E70168CA6822F0DC
:102FD0002002CA6090F83910322911D00168CA68FD
:102FE00022F48072CA6001684A6922F001024A61D3
:102FF0005FF0010180F83910FFF780F9002010BD63
:103000001221F7E72DE9F041044600680169E26802
:1030100021F44051114301612169A068E26908432C
:103020006169114308432168CA6849F20C639A43F5
:103030000243CA6020684169A26921F440711143CA
:103040004161E16964253226B1F5004F46482168A7
:103050001BD0814267D1FDF7F7FE00EBC00101EB09
:1030600000106168A8468900B0FBF1F1B1FBF8F5EA
:10307000FDF7EAFE00EBC00101EB0010616889007A
:10308000B0FBF1F7FDF7E0FE66E0814219D1FDF7F4
:10309000DBFE00EBC00101EB00106168A8464900AF
:1030A000B0FBF1F1B1FBF8F5FDF7CEFE00EBC0018E
:1030B00001EB001061684900B0FBF1F7FDF7C4FEB9
:1030C00018E0FDF7ABFE00EBC00101EB00106168FA
:1030D000A8464900B0FBF1F1B1FBF8F5FDF79EFE03
:1030E00000EBC00101EB001061684900B0FBF1F793
:1030F000FDF794FE00EBC00101EB00106168490090
:10310000B0FBF1F1B1FBF8F06FF01801484307EBA9
:10311000800006EB0011B1FBF8F0216865F31F1089
:103120008860BDE8F081FDF779FE00EBC00101EB9E
:1031300000106168A8468900B0FBF1F1B1FBF8F519
:10314000FDF76CFE00EBC00101EB00106168890027
:10315000B0FBF1F7FDF762FE00EBC00101EB0010E0
:1031600061688900CCE700000038014090F8391010
:10317000122903D0322901D0022070478168B1F5AD
:10318000805F016A0BD04A1C0262026809785160B4
:10319000C18C491E0904090CC1840ED017E00988AE
:1031A0000268C1F30801516001690029016A02D077
:1031B000491C0162ECE7891CFBE70168CA6822F040
:1031C0008002CA600068C16841F04001C16000200F
:1031D000704700000148FEF7AFBF000088010020E3
:1031E0000148FEF7A9BF0000C801002010B5044641
:1031F000002084F80402401EC4F82C02204600F08F
:1032000011FF08B1032010BDB4F8FE01A0F52A415A
:10321000553901D0022010BD94F83600B4F83710AB
:1032200040EA01210848B0EB012F08D094F8521071
:10323000B4F8532041EA0221B0EB012F01D1002064
:1032400010BD012010BD000000464154F0B5002221
:10325000184B144602EB420653F8265085B1D0F8BD
:103260000072BD420DD103EB8605D0F808626F688D
:10327000B74206D12D89B0F80662B54204D000E00D
:103280000124521C022AE5D3022A01D079B904E0B4
:103290005CB9022909D01220F0BD02EB420003EB19
:1032A00080004089B0F5807F01D00020F0BD102063
:1032B000F0BD00006002002030B50021064A0C4637
:1032C00001EB410352F82350854201D142F82340DB
:1032D000491C0229F4D330BD60020020D0F814222A
:1032E000891E921E8A4201D800207047D0F82822F9
:1032F00090F8020201FB002070472DE9F0410F0019
:10330000054606D000F04CFD02280BD20120BDE896
:10331000F081D5F80C621EB1D5F81402B04208D87D
:10332000012606E0411CF2D0D5F814128142EED8F5
:103330003E463446D5F81402641CA04202D802244A
:10334000022E0AD32146284600F02AFD38B1411C3E
:10335000DDD00128DBD0B442ECD10020D7E76FF0FC
:1033600070422146284600F078FE30B957B1224617
:103370003946284600F071FE20B1012812D0012400
:103380002046C4E7C5F80C42D5F81002411CF7D01E
:10339000401EC5F8100295F8050240F0010085F8BE
:1033A0000502EDE74FF0FF34EAE700002DE9F047B2
:1033B00089460C6800E0641C21782F29FBD05C2929
:1033C000F9D0D0F818520B222021284600F023FE15
:1033D000002001460B460826E25C5B1C202A35D9FA
:1033E0002F2A33D05C2A31D02E2A01D0B04208D304
:1033F000082E38D12E2A36D108200B268906090E30
:10340000EAE7802A05D3244F41F003013A4412F839
:10341000802C22A700E07F1C97F800C0BCF1000FB1
:1034200002D09445F7D11EE0A2F14107192F02D82E
:1034300041F0020107E0A2F16107192F03D8203AF9
:1034400041F00101D2B22A54401CC5E71C44C9F81E
:103450000040202A01D8042200E0002218B1287878
:10346000E52803D004E00620BDE8F0870520287099
:10347000082E01D18806010E01F00300012801D1B8
:1034800042F01002C1F38100012801D142F008028C
:10349000EA720020E8E7000030430008222A2B2CC3
:1034A0003A3B3C3D3E3F5B5D7C7F0000401E022876
:1034B00015D20C4B00EB400203EB82014889B0F5BA
:1034C000807F05D008B1401E80B2488110B104E071
:1034D0000020FAE7002043F8220000207047022075
:1034E00070470000600200202DE9F041B0F806624C
:1034F0000446761C30040F46000C37D0D4F8100276
:1035000098B3310773D1401CC4F81002D4F80C12E0
:10351000D4F8000231B190F80222521E12EA161FAE
:1035200005D064E0B0F80802B0421FD95FE000F0B7
:1035300037FC054601281ED9681C3AD0D4F8000291
:10354000D0F81412A94249D87FB1D4F80C12FFF771
:10355000D4FE05000DD0012D0DD0681C29D0D4F863
:10356000000200F090FE20BB07E0FFE70420BDE86A
:10357000F0810720FBE70220F9E74FF400720021F9
:10358000D4F8000200F047FD2946D4F80002FFF706
:10359000A5FED4F8001200274FF00108C1F82C0254
:1035A00011E000BF80F80482D4F8000200F06BFE46
:1035B00008B10120DBE7D4F80002D0F82C12491C36
:1035C0007F1CC0F82C12D4F8000290F80212B94205
:1035D000E8D8D0F82C12C91BC0F82C12C4F80C5231
:1035E0002946D4F80002FFF779FEC4F81002A4F8C7
:1035F0000662D4F8000206F00F0100EB4110C4F897
:1036000014020020B3E770B50446002100F036F83C
:1036100010E0D4F81012D4F8000200F003FD58B9FD
:10362000D4F814020078E52809D040B101212046E1
:10363000FFF75AFF0028ECD0042809D009E0D4F89D
:103640001012D4F8000200F0EDFC050003D013E0E6
:103650000720054610E0D4F814022022002104F5CA
:10366000007400F0D8FCD4E905010B2200F0CAFC7C
:103670002168012081F80402284670BD70B5A0F8C9
:103680000612D0F808320D460446012B40D0D4F87B
:103690000002D0F8141299423AD933B990F80012C6
:1036A000032906D1D0F824321BB190F8020206019A
:1036B00014E0B0F80812A9422AD9D0F8240214E084
:1036C00000F06EFB0346401C20D0022B20D3D4F820
:1036D0000002D0F8140298421AD9AD1BD4F80002A7
:1036E000B5421946ECD2FFF7F9FDC4F80C3278B1B7
:1036F00000EB1510C4F81002D4F8000205F00F0119
:1037000000EB4110C4F81402002070BD012070BD10
:10371000022070BD084910B50B5C002253B901228C
:103720000A540A1801EB8000127B406801681046B9
:1037300088470246104610BD7802002030B4054C80
:10374000231804EB80001B7B406804691846A446DC
:1037500030BC60477802002030B4054D2C1805EBD2
:103760008000247B406885682046AC4630BC6047BA
:1037700078020020044A111802EB8000097B40689F
:1037800042680846104700007802002030B4054D1A
:103790002C1805EB8000247B4068C5682046AC46A9
:1037A00030BC60477802002010B5044600F010F9E4
:1037B00000280DD1204600F096FD002808D1D4F84D
:1037C0002802FFF773FE002802D10021C4F800127E
:1037D00010BD00002DE9F74181B09046029800909D
:1037E000684600F040FB040003D50B2004B0BDE8A0
:1037F000F0810E4E002756F8245025B12846FFF7D9
:103800005BFD85F800720198002801D080F80072F5
:1038100046F8240002D0B8F1010F01D00020E5E7FE
:10382000002202A901A800F02FF9DFE7180000200C
:103830002DE9F747ADF50B7D06000ED04FF00008DF
:1038400002F01F0727F001028CA980A8C6F80082A9
:1038500000F01AF9040005D0B4E009200DF50E7D42
:10386000BDE8F08788A8869068468C9900F038FA01
:10387000859D04000BD11DB1780803D0012102E021
:10388000062404E000216846FFF7E0FC044617F038
:103890001C0F5FD04FF0010AD4B1042C13D10020CB
:1038A0004A4902E0401C022805D200EB400251F8D0
:1038B0002220002AF6D1022804D06846FFF7A3FE92
:1038C000044600E01224859D47F0080754B179E0D2
:1038D000E87A10F0110F01D0072473E0780701D5C2
:1038E00008246FE0380743D500F0BBFAA873010A3B
:1038F000E973010C2974000E687485F80B8085F853
:103900001C8085F81D8085F81E8085F81F8029465B
:10391000809800F017FB81460021284600F050FCFB
:103920008099B9F1000F81F804A21FD08098494610
:10393000D0F82CA200F00DFC040043D18099A9F12D
:103940000100C1F80C025146809800F06BFB0400A6
:103950000AD037E0B4BBE87AC10601D5042431E0CF
:10396000B90701D5C007B7D1380701D547F02007FF
:103970008098D0F82C02C6E98705780801D001218B
:1039800000E00021684600F08DFAC6F82802D8B1A0
:1039900086F8067286F807824746294606F50076BD
:1039A000809800F0CFFA3061287FD5F81D1040EAEA
:1039B0000120C6E90270B761776280983060B0F884
:1039C0000602B080204649E70224FBE7600200209F
:1039D00070B5044600F087FC002811D194F8061257
:1039E0008A060DD5480612D5D4F8000201232146D7
:1039F00090F80102D4F81822FFF7C8FE08B10120A0
:103A000070BD94F8060220F0400084F80602D4F855
:103A10001C12D4F8000200F005FB0028F0D1D4F805
:103A20002052E87A40F02000E87294F80C022877DF
:103A3000B4F80C02000A6877D4F80C02000CA877DE
:103A4000D4F80C02000EE877D4F81012284604F5DA
:103A5000007400F0B5FB00F004FAA875010AE975DE
:103A6000010C2976000E68760020A874E874A0790D
:103A700020F02000A0712168012081F80402206854
:103A8000BDE8704000F0A4BB2DE9FF474FF00009EE
:103A90000746C0F800901646084600F0E4F9050015
:103AA00003D50B2004B0BDE8F0878A4850F82540C4
:103AB000A4B13C6094F8000228B194F80102FFF729
:103AC00059FEC1070CD084F80092E8B284F80102D4
:103AD000FFF720FEC10708D00320E3E70C20E1E751
:103AE0000EB1400704D40020DCE71EB1400701D529
:103AF0000A20D7E7002529462046FFF777FB012853
:103B000023D100204FEA0D0704EB001191F8C221E8
:103B100001F5DF712AB10A7AD1F8091042EA0121D0
:103B200000E0002147F82010401C0428ECD30026B8
:103B300057F826502DB129462046FFF757FB08B904
:103B400009E00220761C042EF2D3032801D0E0BB4A
:103B500001E00120A6E7B4F80B00B0F5007F60D1CA
:103B6000E28A2AB994F82400D4F8251040EA012208
:103B7000C4F81822217C84F80312012901D00229FB
:103B80004FD1607B514384F80202F0B1431E1842CA
:103B900047D1B4F81130A4F808321E0741D1B4F867
:103BA00013602EB994F82060D4F8217046EA0726F5
:103BB000B4F80EC0BCF1000F33D00CEB010707EBDB
:103BC0001317BE422DD3F61B00E02AE0B6FBF0F03F
:103BD00038B3012640F6F678404500D302264FF66A
:103BE000F678404500D30326801C2F44C4F8287281
:103BF000AC44C4F81402C4E9875C032E13D083B12B
:103C00006144C4F82412022E19D000F0010100EB27
:103C1000400001EB500000BF00F2FF10B2EB502F4C
:103C20000FD20D203EE7002BFBD194F82C10D4F8D6
:103C30002D30800041EA0321C4F82412ECE7400053
:103C4000EAE74FF0FF30C4F81002C4F80C028020FD
:103C500084F80502032E30D1208E01282DD1204674
:103C6000691C00F0DFF940BB84F80592B4F8FE014E
:103C7000A0F52A41553920D12078D4F8011040EA26
:103C800001201549884218D194F8E401D4F8E511CF
:103C900040EA0120114988420FD194F8E801D4F894
:103CA000E91140EA0120C4F8100294F8EC01D4F8BC
:103CB000ED1140EA0120C4F80C02064984F80062C4
:103CC000091F0888401C0880A4F806022046FFF758
:103CD000F3FA08E718000020525261417272416104
:103CE00073B50446019908782F2801D05C2801D1CA
:103CF000491C01910025C4F8085201980078202839
:103D000006D200212046FFF7B9FCC4F814527CBD4E
:103D100001A92046FFF74AFB0028F8D100212046E0
:103D2000FFF7ACFC20BB00BFD4F81012D4F800029F
:103D300000F078F9E0B9D4F814120A7832B1CA7AEE
:103D400012070FD40A23D4F8182203E004200FE04E
:103D50005B1E06D311F8015B12F8016BAD1BF7D0A7
:103D600000E02DB100212046FFF7BEFB0028DBD08C
:103D7000D4F81812C97A28B10428C8D14907C6D482
:103D800005207CBD4907FCD4D4F81412C87AC006BB
:103D9000F6D5D4F8000200F0D5F8C4F80802B7E769
:103DA0002DE9F0410D46044602290DD3D4F8140242
:103DB000A84209D994F800024FF0FF36012807D035
:103DC00002282AD0032836D001263046BDE8F081EB
:103DD000D4F8200205EB550700EB5721204600F0F0
:103DE00021F90028F1D1C7F308007F1C14F80080E6
:103DF000D4F8200200EB5721204600F013F90028E8
:103E0000E3D1C7F30800215C48EA0120E90701D0AB
:103E10000609DAE7C0F30B06D7E7D4F8200200EB77
:103E20001521204600F0FEF80028CED1E8B204EBC0
:103E300040000688C9E7D4F8200200EBD5112046DF
:103E400000F0F0F80028C0D140F2FF1000EA850031
:103E500020440178D0F8010041EA002020F07046AB
:103E6000B3E70020704710B504464FF0FF302268DA
:103E7000002A13D0114600E0491C0B78212B0ED3E9
:103E80003A2BF9D112F8013B303B0A2B06D28A4279
:103E900004D1022B02D2491C1846216010BD00201B
:103EA00010BD0000F0B50346254AD3F800420020BB
:103EB00000EB400552F82560A6420BD102EB8505C8
:103EC000D3F808626F68B74204D12D89B3F806624F
:103ED000B54202D0401C0228EAD302281AD10020A1
:103EE00002E0401C022805D200EB400552F82550A4
:103EF000002DF6D1022815D000EB400542F82540F0
:103F000002EB8504D3F808626660B3F806322381B9
:103F100000236381002900EB400102EB8101498904
:103F200002D019B10020F0BD491C01E04FF48071AE
:103F300000EB400302EB8302401C5181F0BD000006
:103F4000600200200246488B92F80022032A02D128
:103F5000898A40EA01407047FCF736FDFEF794FF7E
:103F6000FEF728FAFEF7CCF91F4C01220821204663
:103F7000FCF716FD012210211C48FCF711FD01225F
:103F800004212046FCF70CFD6420FCF725FC1948B1
:103F900017490024C0E900148460C46004614461CE
:103FA0008461FEF765FAFEF77DFA144812494FF472
:103FB000E1350160C0E901540C26C460C0E9044643
:103FC0008461C461FEF725F90C480D494030016059
:103FD000C0E90154C460C0E904468461C461FEF7CD
:103FE00018F9FEF7B7F9FEE70008024000040240A6
:103FF000002C01407800002000380140880100209A
:104000000044004004E000BF11F8013B00F8013B10
:10401000521EF9D27047C9B201E000F8011B521ECE
:10402000FBD2704770B50546D0F82C020C4600262E
:10403000A04210D0284600F026F906000BD195F8D2
:104040000102012322462946FFF786FB08B1741EB0
:104050000126C5F82C42304670BD2DE9F0471746C1
:104060000D460446022903D3D4F81402A84202D80C
:104070000220BDE8F08794F8001207F0FF084FF027
:104080000109012920D0022950D00329F0D1D4F808
:10409000200200EBD5112046FFF7C4FF0028E8D12D
:1040A00040F2FF1101EA85010A194FF07043D2F87E
:1040B000011003EA0121394311700B0A53700B0CF4
:1040C0009370090ED17041E0D4F8200205EB55063B
:1040D00000EB56212046FFF7A5FF0028C9D1C6F303
:1040E0000800761C2044E90703D0017868F31F110B
:1040F00000E03946017084F80492D4F8200200EB05
:1041000056212046FFF78EFF0028B2D1C6F30801E2
:104110002144EA0702D0C7F3071205E00A78C7F383
:10412000032302F0F0021A430A700FE0D4F82002D1
:1041300000EB15212046FFF775FF002899D1E9B261
:1041400004EB41013A0A81F800804A7084F8049235
:104150008FE72DE9F0410F460646022917D3D6F81E
:104160001402B84213D9002523E039463046FFF740
:1041700017FE040021D0012C09D0601C09D00022B8
:1041800039463046FFF769FF050016D103E00225E6
:1041900013E0012511E0D6F81002411C08D0401CA4
:1041A000C6F8100296F8050240F0010086F80502F4
:1041B0002746D6F81402B842D7D82846BDE8F08181
:1041C00081760A0AC2760A0C0275090E417570479B
:1041D00070B5044600F057F8050052D194F800027B
:1041E000032846D194F80502012842D14202002159
:1041F0002046FFF710FF552084F8FE01AA2084F81E
:10420000FF015220207060706120A0704121E17098
:10421000722284F8E42184F8E52184F8E61184F818
:10422000E701D4F8100284F8E801010A84F8E911E2
:10423000010C84F8EA11000E84F8EB01D4F80C02AA
:1042400084F8EC01010A84F8ED11010C84F8EE11F8
:10425000000E84F8EF01D4F81C220123521CC4F88C
:104260002C2294F801022146FFF790FA002084F8EE
:104270000502002294F801021146FFF75FFA00B12F
:104280000125284670BD2DE9F041044690F804024E
:10429000002728B3D4F82C5294F8010201232A46AF
:1042A0002146FFF773FA08B1012719E0002084F8CE
:1042B0000402D4F82002D4F81812281A88420FD227
:1042C00094F803620AE0D4F818020123054494F834
:1042D00001022A462146FFF759FA761E022EF2D233
:1042E0003846BDE8F08110B588B1D0F8001271B140
:1042F00091F800225AB1B1F80622B0F804028242C5
:1043000005D191F80102FFF735FAC00700D0092066
:1043100010BD0102030400000000010203040102B9
:10432000030406070809030406080C1018203000CF
:10433000808182838485868788898A8B8C8D8E8F05
:1043400090919293949596979899AD9B8C9DAE9FE2
:10435000A021A2A3A4A5A6A7A8A9AAABACADAEAF65
:10436000B0B1B2B3B4B5B6B7B8B9BABBBCBDBEBFD5
:10437000C0C1C2C3C4C5C6C7C8C9CACBCCCDCECFC5
:10438000D0D1D2D3D4D5D6D7D8D9DADBDCDDDEDFB5
:10439000C0C1C2C3C4C5C6C7C8C9CACBCCCDCECFA5
:1043A000D0D1D2D3D4D5D6F7D8D9DADBDCDDDE9FB5
:1043B00000040002000180004000200010000800FE
:1043C00004000200000000800040002000100008EF
:1043D000004000200010000800040002692D0008C1
:1043E000F92D0008D92D0008192E0008892D000884
:1043F00010440008000000202400000060010008B4
:104400003444000824000020C40800007C01000897
:104410000000000000000000000000000048E8016B
:10442000000000000000000000000000000000008C
:044430000100000087
:0400000508000125C9
:00000001FF
